:02000004C0D06A
:1000000010B5044662B604F02DFF002C0DD001207F
:1000100000022168814205D1606801280AD1A068E8
:10002000002803D104F0EEFD02E0002004F00EFEF3
:10003000002010BD204604F08BFEF0B581B00446D0
:100040000020002A1CD00B780A2B19D89D0001260D
:100050003543954214D82370002B10D00096271DED
:100060004D1C002601210022284602F0D5FA01C7C6
:100070002D1D761C20788642F4D3009800E030468F
:1000800001B0F0BDF0B58DB04A484B4C0027275267
:100090004120C0000090275401AE304608F0FAFD20
:1000A0000546B585A8B2002812D0052877D001A84A
:1000B00087850B9806F024F802203E49605240489C
:1000C0006F21017045700121204602F071FE58E059
:1000D00001A806F015F80B90208802F070FE207839
:1000E000002802D03548334D2FE0354A5078137838
:1000F0000021364D7D44364E7E446F5CBB4202D1BA
:10010000775CB8420AD0491C0D29F6D36D20000255
:10011000CBB20D210D2B274D01D116E0254D2D48D9
:100120007844405C002809D08120830067200002C9
:100130001279002A09D0E25A052A06D088002649F9
:100140007944085805F0BEFD80471E4960522521BC
:100150004901615C00290CD0009BE15CEF220A4060
:10016000E25409210903884203D05D21164A012384
:100170005354615B020A124B5A545A185070881C2F
:10018000605305F0B1FF01A9884202D10B9805F038
:10019000B7FF01A8808D002809D10DB0F0BD01A8DE
:1001A00087850B9805F0ACFF052004F060FE04F095
:1001B0005EFEC046060200007C020020AA6F00001E
:1001C000600900200A02000000020020008D0000EB
:1001D000098D0000EE8C0000DC8C0000F0B581B0D1
:1001E00018480025FF22294604F058FE1648174EED
:1001F000355241200090C40035555D271448C15D3B
:10020000305D25225501725D002A06D0002904D0F8
:10021000202108430099C90070540B49715A05F018
:1002200063F8812189007052705D002806D008486B
:10023000C05D002802D0002005F022FFFFF722FF5A
:10024000DBE7C04660090020060200007C020020B7
:1002500000020020F0B581B0304C7C44204605F00F
:1002600031FD808802F0ABFD204605F02BFD808833
:10027000C0B2254CFF2843D02948784405F022FD20
:100280008088FF2108423BD0204804680546A088AA
:100290001F4F7870000A3870E088F870000AB87054
:1002A000207A38710934204608F016FD02467A712A
:1002B000B81D214604F0E2FD2C682046093008F004
:1002C0000BFD0546AE1D2734204608F005FDF1B2B2
:1002D0007854EE1DF0B23D18204608F0FDFC0246B1
:1002E0002846214604F0CAFD08480068273008F077
:1002F000F3FC8019C0B20749074A50520920040391
:10030000204601B0F0BDC0468569000020070020EE
:1003100060090020060200007C020020A29B000071
:10032000829B000080B51248784405F0CBFC8079B0
:100330000C490D4A082353520C4930224A700122BD
:100340008A700623CB7005230B714A7100238B71D1
:100350000323CB7110401B2242400A700920000386
:1003600080BDC046060200007C020020600900201B
:10037000D49A0000B0B51A4C7C44204605F0A2FC8B
:10038000808802F01CFD204605F09CFC8088C0B2ED
:100390000F4CFF2819D01348784405F093FC80884F
:1003A000FF21084211D06B2004020A4DA8780028D2
:1003B0000BD10D48784405F085FC80880649074A32
:1003C000012353522870092004032046B0BDC046C3
:1003D0008569000060090020060200007C02002000
:1003E000849A0000649A0000489A000010B5072023
:1003F000C0430A490979002900D00846C4B26720E1
:100400000002F82C08D80548214603F0DFFB044819
:1004100004490C520920000310BDC04660090020A9
:10042000060200007C020020F0B587B0594E3779F3
:100430005D4D7D44284605F045FC808802F0BFFCF8
:10044000284605F03FFC8088C0B2534C042800D9F0
:1004500097E00125294681401620014200D190E015
:100460000697B1786B200702002080291FD0002951
:1004700000D089E0701D00262946324602F0CCF8F3
:100480006A02464988507F2080000E5428020D548D
:100490003D20C0000E5442480E547B2080000E5474
:1004A0001F2000010E500E75CE773A4E0420F178D1
:1004B0000029334668D10699091A7D229200374EE9
:1004C000B1541D461818401D3F21C900705001202D
:1004D00002F046FD09200103307D082853D1002099
:1004E00030757F208000305CFB34002827462C4686
:1004F0004AD006912021684622463032049202609A
:100500000591416035462835012100272846039191
:100510003A463B4603F042FB002838D1284603F018
:1005200037FB08210291204603F050FB6770322010
:100530002070221D049F3846059D29462B4603F056
:1005400033FB0398400231582046243002F041FA30
:100550002046283031461531029A04F08FFC1348AA
:10056000784405F0AFFB69460F604D6008303023DA
:100570002946224603F01EFB0A4838213152069FC5
:1005800002E0274600E00F46B8B207B0F0BD04F025
:100590006EFCC04660090020856900007C020020D6
:1005A0008E04000006020000CA9900009C9800001A
:1005B000F0B59FB014460E4602AD69460D600121AC
:1005C00015AF1A463B4602F08BFA08354127002E3C
:1005D00003D1284601F0B8FD2127412220462946B3
:1005E00004F04CFC38461FB0F0BD0000F0B59DB0E3
:1005F000C44E7E44304605F065FB8579BB4CA0783F
:100600000D90304605F05EFB2927C05D0126354080
:100610000B95002500282A460AD0A07802282A46F1
:1006200006D1B348817901220020072900D0024673
:100630000C92B548784405F045FBC05D0D9B012B3D
:1006400029460DD00C990029294609D100282946B0
:1006500006D0A74881790020072900D006463146F8
:100660000A910127012B384600D12846252149014E
:10067000A04A515CA04EFE36E278002903D0002843
:1006800001D135462FE16B200502A078022800D960
:1006900029E1022A11D3032A08D0022A00D022E13C
:1006A00096480068406B002807D11CE19348006819
:1006B0004021405C022800D015E167200502207926
:1006C000002800D10FE1012B099202D1601D04F036
:1006D0003BFA08900C98002809D060798000801DB2
:1006E000C0B220180121002201F096FF1C90874D16
:1006F0007D44284605F0E6FA808802F060FB284633
:1007000005F0E0FA7C49CD1C8088C0B2042800D9ED
:10071000E9E0012181401620014200D1E3E005F02B
:100720006FFCAA28744D00D0DDE0651D28463946CF
:1007300002F070FA0790412006902070671C14ABFD
:1007400028460B993A46FFF733FF099B0546012BD4
:1007500014D0032B10D1E9B20EAD38462A4602F070
:1007600040F90020694608602246433214213223B2
:10077000284603F075F943E0022B34D10EA814216A
:1007800004914170002105910170E9B2821C384644
:100790001F46039202F025F958480068022F17D12E
:1007A000049F406B00282CD005F08CFA0146684667
:1007B00007602746433700223846039B05F04AFB73
:1007C0000546E8B201281CD1384608F085FA17E042
:1007D000C0886946086005984860224643320EA8E2
:1007E000162196230AE045480068808800216A4661
:1007F00003C2E9B2224643329623384602F027F973
:100800000546422025540B98002801D10420607031
:10081000EFB2E5192846433014A9202204F02EFB3C
:10082000384663303649334B58520D98012830D042
:10083000079800282DD00C98002847D02425585D13
:10084000002808D0194620311CA8042204F022FBFD
:10085000284B00283AD000265E55184620301CA9A7
:1008600004221F4604F010FB1C9B2046C8300925BB
:10087000274A7A44294605F055F8D0202654069890
:10088000C000395C10220A433A5404F07DF92D036C
:1008900029E00D95322F354625D82046C8304334FF
:1008A00021463A461C4604F0E9FAC82000210D9A78
:1008B00011540698C000215C10220A432254089863
:1008C000C0B204F04FF9092005030CE0092005032C
:1008D0000A98002807D00698C000195C10220A4325
:1008E0001A5404F05BF9A8B21DB0F0BD60090020F5
:1008F000B40A00207C02002082690000200700204A
:10090000060200000A980000C89700000C9700003B
:10091000D0840000B0B5692300218522002807D0CB
:100920000C480D49085A0D4941180B32002001E0CE
:1009300010461A468BB20A4CE2548A1C054B064DEF
:10094000EA52491C89B2605491B2202004F0CCFCD8
:10095000B0BDC046060200007C020020FEFF000081
:1009600060090020F0B593B00920C701C24D0026F0
:10097000EE51C24C285D022822D0012800D077E138
:10098000C84FEE51BE48295A002900D154E1BF4852
:10099000285C0122FD281FD2E851022129558F2110
:1009A000C9006850B94828188118B54C16462A5B0A
:1009B000921B04F063FA285B801B285301263BE15D
:1009C000AF4C295B092900D236E1AE4BE85CFD2231
:1009D000FC2812D809221FE0FE282ED0FD2800D0C6
:1009E00046E1032900D227E1AF48295CA12080001D
:1009F000285C000208430322CEE7904200D037E192
:100A00000B2900D218E1A048281800210A4601F05D
:100A1000DFFD9C4B295B0B221018884200D90BE1AB
:100A20000A900020012699492A18525C401C002A8D
:100A30000ED100240728F7D918E0052900D2FBE0E1
:100A40009948281800210A4601F0E6FD0522A3E78F
:100A5000691811AC0822204602F038F88C48281892
:100A60000146224602F0B4F9864B34460497EF184B
:100A7000384601F0BBFE0590384601F085FC079032
:100A8000384601F0B9FC0290824800684021039189
:100A9000405C002111280891099108460FD17B2064
:100AA00081000691384601F0C3FE09903846069948
:100AB00001F0F6FE08903846069901F0F6FE019026
:100AC000384601F0BBFC1F2211010691695802292A
:100AD0000ED800920390384601F008FC07990843AD
:100AE00000280A9A38D006982858012850D8BFE024
:100AF000684800680399405C11280A9A079911D147
:100B0000384601F0F3FB07990A9A0843002809D1F7
:100B10000898099B1843002C01D1059B1843002815
:100B200000D1A5E05B480068039BC05C11282FD072
:100B30001D282DD001200021059A002A00D008464A
:100B40000443384601F0D2FB07990843012C0A9A66
:100B50001ED100281CD18BE00898099B1843002C5B
:100B600006D00028BFD106982858002807D17FE07A
:100B7000059B18430028B6D1009800012858039B14
:100B8000002B01D1012873D0002B01D102286FD096
:100B90000998089B0343002B6AD105980028049FFD
:100BA0003FD13D48285C00283BD0029B0B430424E6
:100BB0000320002B00D004460198084300280CD1E4
:100BC00036482918E0B228182E4A8018142204F05A
:100BD00061F907990A9A002838D03D20C000002901
:100BE0001FD0285C00281CD009940BAC142208925A
:100BF00062700020207029482918A01C04F03EF9DA
:100C000016212046224601F0ECFE0998C0B22818B1
:100C10001C4940182146089A04F03CF900280ED0DF
:100C20000A9A06996858401C6850EA514120C00051
:100C3000295C10220A432A54304613B0F0BD1548EF
:100C400000684421405C400712D50A9A1448295C88
:100C500000290DD10121295406996858401C68507B
:100C60008F20C0002958491E2950002AE4D099E657
:100C7000012004F0FCF8C0467C020020840400003F
:100C8000760400008A0200008B020000820200004D
:100C900085040000200700207E0200006A02000098
:100CA0008D0400007C0400008302000070B59EB03B
:100CB0000C4601AD69460D600126002214AB314699
:100CC00001F00EFF0948784404F0FCFF08358179F3
:100CD0004120314203D1284601F036FA212081B269
:100CE0002846224601F07DFE1EB070BD3691000000
:100CF000F0B59BB0F74A94786B210E021179002C65
:100D000004D0FF2C02D0802C00D0C8E102910690C4
:100D1000F149F24F3D20C0000590385C00250028C5
:100D200012D0785C00280FD150790125FD21FD28D3
:100D30000AD34A1CD5B205220023A84200D01A4685
:100D40000325884200D0154607AE304607F0A2FFC3
:100D5000B085E349084208D007A800218185119891
:100D600005F0CEF96F20060276E107A805F0C8F974
:100D70001190387DDB4E092800D06AE10221C8437A
:100D8000801CC0B2844240D1787F002800D14CE161
:100D90000520C401385D002800D15AE10025582201
:100DA0000698294604F07AF8CA494879002800D103
:100DB0003BE1069E2336491D2922304604F05EF8A9
:100DC000CF4839183046FFF771FF3D55C94801211A
:100DD000395434463046C34D01F0CAFE002800D1D4
:100DE00023E125204001385C00282E4600D030E168
:100DF000BF48042139544120C000395C10220A4305
:100E00003A54204603F0D4FE0FE10391F520400050
:100E10000490385C00281AD1E8B202990B1A3446C3
:100E2000FB36002B00DA14E100216A4611605160A4
:100E3000A84A1018421D3E462836304602F0AEFE43
:100E4000002800D043E1304602F0A2FE2646787F1B
:100E500000282FD0A44C385B029D4119FB367D221F
:100E60009200914200D9F4E03818A04940189949FD
:100E7000491D2A4604F002F8385B40193853FFF741
:100E800071FD002804D04120C000385CC006F6D5B2
:100E90008F20C00038580028924E0BD14120C1004D
:100EA000795C1022114205D1914B0324FC5411436B
:100EB000C00039540598385C864A9178002936D0AC
:100EC000002819D1344620206946486013A80860DC
:100ED0003E469436521D01213046029B02F05EFED2
:100EE000002800D0F3E0304602F052FE0598385C4E
:100EF00000287849264671D00498385C002832D002
:100F000020206946486013A80860172000013A189D
:100F10003D46943501216023284602F03FFE00281B
:100F200000D0D4E0284602F033FE6A4956E000289B
:100F300011D100216846016041603E469436521D41
:100F40003046029B02F02AFE002800D0BFE0304667
:100F500002F01EFE5F4A6948012139525E48395449
:100F60000020107061E0202268461B2109017D18D5
:100F70000560144642603E46283601210023304673
:100F80002A4602F00BFE002800D0A0E0304602F016
:100F9000FFFD304602F020FE6846056023464360B0
:100FA000012130462A4602F0F9FD002800D08EE0EB
:100FB000304602F0EDFD6846446013A901603D46ED
:100FC00094350121434A0023284602F0E7FD00281A
:100FD0007DD1284602F0DCFD3E49424E787F002854
:100FE00029D04448385C002804D1002158220698B2
:100FF00003F054FF404800680179069C61708079D5
:10100000A07020464C30082102F0E0FD3B480399D7
:10101000395200202F4908704870787F002811D07D
:10102000E01C13A9202203F029FF119805F068F8AD
:101030000920060333E03148039A3A5200204870F1
:101040000870069CE11C13A8202201F0B3FC0028C4
:1010500028D0119805F054F8284C002038533875E2
:10106000214D7A5B214839181A4803F007FF785B55
:10107000385305F039F807A9884202D1119805F0D4
:101080003FF81B4801213954174800243C521D48A1
:1010900038180822214603F001FF1B483C54B0B227
:1010A0001BB0F0BD0498385C7B218900795C01435A
:1010B00005983A5C0A20002A05D0090603D10120D0
:1010C000049978540020387509200603D1E703F00D
:1010D000CEFEC04660090020810200007C02002094
:1010E000FFFF000085690000760400008202000016
:1010F000840400007E020000200700200602000099
:101100006A020000850400008D04000070B52120F3
:101110000001134D2818FFF7EBFD04464120C600DF
:10112000A85DC00619D50F48295C042904D00329FD
:1011300005D103F0C9FC04E0012129540DE003F0BE
:101140009DFC002809D1084800212952A85DEF2202
:101150000240AA552975D520C401204670BDC0465D
:101160007C0200208404000006020000F0B581B07B
:101170008F20C7003D4DE8593D4C295D022901D122
:10118000401EE85109210E030028009629D0394855
:101190002818CE01AA598118374C2B5B9A1A03F0F4
:1011A0006DFEA859295B081A28534120C600A85D86
:1011B000EF210140A955FFF7D5FB002802D0A85D1B
:1011C000C006F8D5A85DC006009E294C09D503F0DD
:1011D00055FC01460120002945D100202875D52065
:1011E000C601295D02290AD1E859002807D1032048
:1011F000285503F069FC002807D0295D0AE0320A6F
:101200000020009B9E420CD12DE00021295529751C
:10121000D520C60101200022009B9E4200D010462E
:10122000320A164FEB5B164CE2549A1CEA535B1CD5
:101230009BB2E654002801D003290FD101200C49AC
:1012400068540D4800242C520E48281808222146C4
:1012500003F024FE0C482C5408482A5A91B220204E
:1012600004F042F8002001B0F0BDC0467C0200202E
:1012700084040000820200007604000006020000E0
:1012800060090020850400008D040000F0B585B0E1
:10129000744D2F797C4C7C44204604F013FD8088EB
:1012A00001F08DFD204604F00DFD6F4EF21C80888C
:1012B000C0B2042800D9D2E0049701273946814002
:1012C0001620014200D1CAE0A878684A7632802808
:1012D00008D0002800D0C2E03902654B03245C54DA
:1012E00000211975EC788023052C59D8012C57D092
:1012F000002874D1581CC1B200208C4200D007468F
:10130000A01E02905A48407F002803930CD1184633
:101310002A30C0B20090019104F072FE0199009A47
:101320009042324600D09AE07B208000504A13461B
:101330001F541F20000100221A5001208C42014638
:101340001E4600D01146029BDBB2042B034600D39D
:10135000134619433D23DB00F1547077F28345496E
:1013600009684023CB5C444972540326744002262A
:101370005E402643002E00D01046FF263246EA3259
:101380003B4988541B2B14D8012098403B4A1042FB
:101390000FD0E878052808D004280AD1012005E0FC
:1013A000802C1CD0812CA3D059E00220324A304935
:1013B0008854334800242E4F3C54F52040003C54C0
:1013C000304838181822214603F068FD0520C00176
:1013D00001213954EC36BC55EC78A878039B049F66
:1013E000FF21EC31224E3D22D2009C422BD0B25C38
:1013F000002A28D0725C002A25D1984223D128796E
:101400000A38C0B231281ED8687902281BD80128B2
:1014100008D1A879382805D1E879322802D1287A6C
:10142000002810D025204001305C00280F4A16D13A
:10143000012070544120C000315C10220A43325414
:1014400003F0D6FB049F7D20800037543F20C0006E
:10145000691D3150022001F083FD0920020390B282
:1014600005B0F0BD60090020826900008A6A0000B2
:101470007C020020200700208E04000080018008EC
:101480008F0400006A020000668B0000F0B593B084
:10149000764C7C44204604F015FC808801F08FFCDB
:1014A000204604F00FFC8088C0B2674F04283DD866
:1014B0000125294681401620014237D0634EB0787D
:1014C000F17801436B200002002930D1672000022F
:1014D000317907292BD305AC204607F0DBFBA0852B
:1014E0005B49084208D005A8002181850F9804F0C7
:1014F00007FE6F2007020EE005A804F001FE0F9022
:101500005449087D0A2803D1FB3770790B2811D381
:101510000F9804F0F5FD4F480021017504F0E4FD3B
:1015200005A9884202D10F9804F0EAFD384680B23E
:1015300013B0F0BD48480818741D292204902146B4
:1015400003F09CFC707980002843215C201844182B
:10155000601C00262946324601F05EF8039064794B
:101560003E483C490C544248784404F0ABFB807937
:10157000042108420DD13A4800684021415C02290B
:1015800002D0816B002958D0412CC1D1806B000260
:10159000044334482F49085C002823D111AD284664
:1015A000039901F016FA281D214601F012FA7B205A
:1015B00080002849085C002804D011A8082100F008
:1015C00069FE0FE06846066046600D46283511AAA0
:1015D00008232846314602F0E1FA002831D1284696
:1015E00002F0D6FA0021049D284601F013FB0028E2
:1015F00005D00120014600F03DF8164C09E04120DD
:10160000C000144C215C10220A432254284603F0E7
:10161000DFFA25204001205C09210F03002800D1BA
:101620007CE711488168491C81604268914200DA78
:1016300074E75D210122425470E7012C2C46A8D0AA
:1016400066E703F014FCC0468569000060090020CD
:10165000FFFF00007C020020330200006602000051
:10166000200700208E040000000200206A8900008C
:1016700094880000F0B5AFB00C46002817D00021C8
:101680006846016039483A4F381825AB0A4601F0E0
:1016900027FA7B208000385C00280FD02020694684
:1016A00048601DAA0A60412080003D180DE03249C3
:1016B0002F4A002050526922852142E020206946AD
:1016C00048601DAA0A603D462835012100232846AE
:1016D00002F064FA002846D1284602F059FA02AE18
:1016E000304602F079FA2023684643601DAA026062
:1016F00001253046294602F051FA002833D102A8CC
:1017000002F046FA1E48784404F0DCFA807940087A
:1017100028406946FF2252320A60486025A81DA968
:101720002022144D2B4601F013FB6978C81C124A85
:10173000B852124ABA5C69188A707A21CA430B32CD
:101740000021002C0DD183B20A4CE254821C0A4BBA
:10175000074DEA52401C80B2215491B2202003F080
:10176000C3FD2FB0F0BD03F082FBC0463302000082
:101770007C020020600900200602000066020000D2
:10178000F6860000F0B581B067200602284D287962
:1017900001282AD1284C7C44204604F093FA808802
:1017A00001F00DFB204604F08DFA8088C0B2214F75
:1017B000FF2819D02148784404F084FA8088FF215A
:1017C000084211D0FE1E04F01BFCAA280DD16C7932
:1017D0001B48784404F076FA092109038088C0B2D6
:1017E000844205D10E4600E03E46B0B201B0F0BDE5
:1017F0003E46FB36082CF8D800910120A0408B21F2
:1018000049000842F1D00F4D7D44284604F05AFAB1
:10181000408801F0D4FA284604F054FA4088204267
:101820003E46E2D0204600F097FC009EDDE7C04631
:101830006009002085690000668600004686000079
:101840002A860000F48500006D2000027047000029
:10185000F0B58BB009AD002106262846324603F0CC
:101860001DFB0A200A9901432971012428462146BB
:1018700001F09EFA02202843214601F099FA124F06
:101880007F44384604F01EFA801C2946324604F094
:1018900083FB6D4620262846314602F097F93846EC
:1018A00004F010FA08302946324604F075FB08AD02
:1018B0002C70384604F006FA401C2946224604F0F3
:1018C0006BFB0BB0F0BDC0467C850000F0B581B06D
:1018D000017800250091002918D0441C002701251B
:1018E000002620462946324600F096FE80B209497D
:1018F00088420BD00849884207D0241D7F1CF8B2CB
:10190000009988423546EAD300E00225E8B201B0EA
:10191000F0BDC0461DB100001EB10000F0B597B08B
:10192000B44A9778802038436B210E02802800D07B
:1019300052E110790990D478002F04D1022C02D3FF
:10194000802C00D048E1D520C5012E46FE3E04F093
:1019500057FBAA2800D03FE10A950BAD284607F0B7
:1019600099F9A885A449084208D00BA800218185CF
:10197000159804F0C5FB6F2006021DE10BA804F0CA
:10198000BFFB1590002F26D04D21CA009B4C9921FA
:101990008D00615B002900D10BE1A25A8A4200D080
:1019A00007E1084600F0BCFF002800D100E1625BBF
:1019B000934820187D21890000F0BEFF002800D147
:1019C000F6E090482018FFF781FF00287BD000F058
:1019D00023F90646F8E0012C2AD821200001874E81
:1019E000301800255822294603F058FA814B5879BF
:1019F0000B2800D3DCE0854800680179844AB154A3
:101A00008079844970547F483018591D292203F089
:101A100035FA784802465079800001210143521876
:101A20005079002C5BD0927900021043072257E0D6
:101A300099218E00714FB95B4D22D4003A5B099B0E
:101A4000D2188A420A9D00D9CDE0084600F068FF0E
:101A5000002800D1C6E0089600256846056045606C
:101A60003E4628366348421D304629460392099F68
:101A70003B4602F093F8002800D0B8E0304602F070
:101A800087F86846056045605C4E943630462946C6
:101A9000039A3B4602F082F8002800D0A7E03046C7
:101AA00002F076F8554F385B3818554940180399BD
:101AB000099E324603F0E8F9385B801938534D4BE4
:101AC0001D70089962E04120C000215C10220A4389
:101AD0002254159804F014FB092006037CE006222A
:101AE00099239C0030538918002861D0049100F09C
:101AF00017FF00285CD04D20C700F55306943446EC
:101B00002836304602F068F820469430059002F0FE
:101B100063F80797E05B0999491D049BC91ACFB286
:101B200038180699615A884242D86846056045606F
:101B30003048C4183046294622463B4602F02EF86B
:101B4000002854D1304602F023F86846056045600D
:101B5000059E30462946029422463C463B4602F00A
:101B60001DF8002843D1304602F012F8234F079E9B
:101B7000B85B3818224940180299224603F084F9CC
:101B8000B85B2018B8531B4B1D700699795A82B266
:101B9000092006031C48914221D1022139525D706F
:101BA000174838187D21890000F0C6FE00280BD1A7
:101BB000159804F0A5FA0A9E212000010F49081883
:101BC0000021582203F06AF904F08EFA0BA988422A
:101BD00002D1159804F094FAB0B217B0F0BD01210B
:101BE0003952F1E7159804F08BFA2E46E4E703F03A
:101BF0003EF9C04660090020FFFF00007C02002083
:101C000082020000330200000602000020070020CC
:101C10001102000012020000F0B5A1B03B483C4F99
:101C200000253D5203AC204607F034F8A085394921
:101C3000084207D003A885850D9804F061FA6F204B
:101C400004024BE003A804F05BFA0D9020266846DE
:101C5000466019AA02603D46283501210024284625
:101C6000234601F09BFF00284ED1284601F090FF4B
:101C7000284601F0B1FF6846466019AA02600127B4
:101C800028463946334601F089FF00283CD12846D2
:101C900001F07EFF684604601F481D4E30180FADEE
:101CA000214622462B4600F01BFF1D48784404F0D5
:101CB00009F88079400838403746694664220A604E
:101CC000486019A92022154C2846234601F040F807
:101CD0006078801C0D4978520920040304F004FA4E
:101CE00003A9884202D10D9804F00AFA21200001CC
:101CF00038180021582203F0D1F803A8808D00285D
:101D000002D1204621B0F0BD03F0B1F80602000078
:101D10007C020020FFFF0000330200006009002069
:101D20005081000070B525204001094D285C002835
:101D300001D0084C09E04120C600FFF7EFFD044642
:101D4000A85DC00601D502F0F7FE204670BDC04672
:101D50007C02002082690000B0B50146692285201E
:101D6000002902D0FFF758FF020A0749074B5C5AC7
:101D7000074D2A55A21C5A52611C89B2685491B26F
:101D8000202003F0B1FAB0BD060200007C02002062
:101D9000600900206D20000270470000F0B589B096
:101DA0001E4617460A460024E543782A00D987E0F4
:101DB000002A06D00024015D002902D1641C94424F
:101DC000F9D30490111B8A2048436421069206F03F
:101DD000A5FD03465A1C306898423FD901960295EA
:101DE000002138460092059303F058F8059B0394B0
:101DF0000698844226D21946039A04980792805C7A
:101E0000491E08911C46395D09020E183D463A27C5
:101E10003046394606F00CFE4743F11B2F46395534
:101E2000393608998C4201D8732E04D3611E002CD8
:101E30000C46E8DC00E02146079A521C06988242D4
:101E4000059BDAD10021039A029D019E785C00284F
:101E500006D1481C99420146F8D302E032602FE0D7
:101E6000084600998918091A336831608B4227D3D4
:101E7000131A002B10DB481E0028059B19DB1348A2
:101E800078447C181E46BB5DC35C635533465B1EBD
:101E9000491E0029F5DC0CE08A420AD20A4979443D
:101EA00014463B5CCB5C3B55401C641C33689C4235
:101EB000F7D3074878440178384602F0EFFF002551
:101EC000284609B0F0BDC0461C6F00003A6F000004
:101ED000066F0000F0B595B000920F4602900AAC74
:101EE0002A21204606F090FE022004430594790042
:101EF00001400D220A4303924140881D01901325A1
:101F0000002102980491405C06900021072009916D
:101F1000401A012108918140069801400791ECB2D6
:101F2000142C0ED81520021B60000AA90E18318847
:101F3000C81C042900D808463080521EB61C002A4E
:101F4000F5D160000AA9085AFF34072800D82C46AA
:101F5000E0B2132817D814210D1A400005990A1869
:101F60000AA90E5A138801210027072B084600D81A
:101F7000384676000E2737400743C8431752921C55
:101F80006D1E1E46EED107980028089A00D1024621
:101F9000149840000E21014011430AA801850999B7
:101FA000491C08292546B1D10499491C0829254610
:101FB000A7D100210B460A460C46009ED8B240002D
:101FC0000AAD285A240603D1002801D10C4604E0AA
:101FD000D4B230303055521C01245B1CD8B2039D62
:101FE0008542EBD81106019D02D1302131700122CA
:101FF00000242146CEB2B5420D4622D936187600CD
:102000000AAFBE5B6D1C002E04D1EEB2019FB74239
:10201000F4D816E02506009F04D1D4B22E253D55F4
:10202000521C0124DDB26D000AAE755B3035D6B2AC
:10203000BD55521C5B1C491CCDB2019EAE423546BB
:10204000D8D8D0B215B0F0BD80B583218900044A3C
:10205000525804490968496CFFF73CFF80BDC046EF
:102060007C02002020070020F0B583B02B4D002615
:102070002B4A2846314602F011FF2846314600F02F
:1020800097FE28482E52252040012E542648012430
:102090002C54264828180822314602F0FFFE244816
:1020A0002E54FF20EC302E542248784403F00AFED0
:1020B0004078012801D0FFF7CBFB1F48784403F09C
:1020C00001FE4078002807D01C48784403F0FAFD50
:1020D000808800F074FE02E0FF2000F03DF8184810
:1020E000784403F0EFFD0078002814D102AD2C7085
:1020F00001AE3470134F7F44384603F0E3FD2930BE
:102100003146224603F048FF384603F0DBFD2946FE
:10211000224603F041FF03B0F0BDC0467C02002020
:10212000A40400007604000084040000850400007C
:102130008D040000527D0000407D0000327D0000D3
:102140001C7D0000067D00004021415C01220A4008
:10215000022111430170704710B582B0014601ACF5
:10216000204600F025FE0548784403F0ABFD001D35
:102170000222214603F010FF02B010BD947C000043
:10218000F0B58DB0074641208000414D2C18204607
:1021900001F022FD00266846066046607720800038
:1021A0002A1804232046314601F0F8FC00286CD19F
:1021B000204601F0EDFC68460660466017200001ED
:1021C0002A1820232046314601F0E8FC00285CD183
:1021D000204601F0DDFC68460660466019200001DB
:1021E0002A1820232046314601F0D8FC00284CD183
:1021F000204601F0CDFC0C960B963D4608377D201D
:1022000081000CAA0BAB3846039100F029FA002894
:1022100038D00B980C9900266A46166056600B1849
:1022200008332046314602952A4601F0B7FC0028C3
:102230002BD1204601F0ACFC04AA3846039900F0EB
:1022400039FB00281DD068460660466004AA1A23A0
:102250002046314601F0A2FC002816D1204601F0AC
:1022600097FC684606604660082320463146029A7D
:1022700001F094FC002808D1204601F089FC0126D9
:1022800000E0002630460DB0F0BD02F0F0FDC04683
:102290007C02002070B582B00C46064600216846DC
:1022A00001604160412080000F4A15181B20000189
:1022B00012182023284601F071FC002812D128466C
:1022C00001F066FC00216846016041602846324604
:1022D000234601F063FC002804D1284601F058FC95
:1022E00002B070BD02F0C3FD7C02002070B5044650
:1022F0001E4E3068416B002911D01D4979440322DC
:10230000204602F0C7FD012500282CD01949794448
:102310000322204602F0BEFD002824D03068402170
:10232000405C14280CD1144979440422204602F060
:10233000B1FD002816D118341049794428220BE049
:102340000F4979440422204602F0A4FD002809D157
:1023500018340C4979440222204602F09BFD0125E5
:10236000002800D00025284670BDC0462007002068
:102370007F6A0000706A0000596A00004B6A000022
:10238000056A0000F7690000B0B50446154800680A
:102390004021405C142810D113497944032220467F
:1023A00002F078FD00281AD1173410497944272209
:1023B000204602F06FFD01250FE00D49794403220C
:1023C000204602F067FD002809D1173409497944F5
:1023D000012520462A4602F05DFD002800D0002598
:1023E0002846B0BD20070020B7690000A86900009A
:1023F0009169000082690000B0B504460C4800688D
:10240000406B002810D00B4979440322204602F08B
:1024100041FD0125002808D00749794403222046C0
:1024200002F038FD002800D000252846B0BDC04687
:10243000200700207369000064690000B0B50446FD
:102440001B497944032202F025FD002809D12046CA
:1024500023301849794401252A4602F01BFD002843
:1024600024D0154979440322204602F013FD0028A8
:1024700009D1204623301149794401252A4602F02A
:1024800009FD002812D00E4979440322204602F0AB
:1024900001FD002809D143340A4979440125204629
:1024A0002A4602F0F7FC002800D000252846B0BDDF
:1024B0006B690000626900004C6900003E69000021
:1024C0002B6900001C690000F0B586B0FF24147071
:1024D000046800278C421AD20B9E002B01D00024E6
:1024E0001C60002E01D00024346005684C1B012CB8
:1024F0000DDB05922A46551C056014784E2C5FD8DA
:1025000004954C2C039704D22746049D45E03C4695
:1025100059E000274E2C26D04D2C0DD04C2CF4D158
:1025200002943746049C0E1B0024012E3E464ADBD3
:10253000951C056057782FE002940196049C0E1BB1
:102540000024022E15463EDB009300231C461F4646
:10255000049AD65CE4B2A640F7195B1C0834022B3F
:10256000F7D1ED1C15E002940196049C0E1B00248B
:10257000042E154627DB0093002423462746049AA1
:10258000165DDBB29E40F719641C0833042CF7D1AA
:102590006D1D0560009B019E029C491B002915DBF7
:1025A00004952546B942039C0DD3002B01D0049914
:1025B0001960002E2C4600D037600168C9190160EF
:1025C000059804700124204606B0F0BD039CFAE78C
:1025D000F0B581B000920722D34308240029224697
:1025E00000D01A46002900D10C4600252946465D38
:1025F0007F273740002D334600D13B46009F002FF8
:1026000000D01E46E3B29E4071189C186D1C022D2E
:10261000EDD1084601B0F0BDF0B581B000920722BF
:10262000D3430822002900D01A461824002900D1DB
:102630000C4600252946465D7F273740002D33464E
:1026400000D13B46009F002F00D01E46E3B29E40C3
:1026500071189C186D1C042DEDD1084601B0F0BD19
:10266000F0B5044600201060186000291FD02578BE
:10267000FD26FC2D01D8012710E0032917D3B54210
:1026800015D1601C002426462546075DF6B2B740EA
:102690007D19641C08360327022CF6D115601F60D3
:1026A0001068C319012000228B4200D91046F0BDEA
:1026B000F0B585B0144602460020FD26002B029698
:1026C00008D0002300291BD01578B54205D201217E
:1026D0002B4616E00B46014613E0032910D3B54202
:1026E00019460ED1561C00252F462B46715DFFB2B0
:1026F000B940CB186D1C08370321022DF6D100E03C
:102700001946029DAD1C04AE357055180395D218BC
:102710005518002B17D0002637466846066003A8D8
:1027200004AA29463346FFF7CFFE00280AD004A8A2
:102730000178781CA14200D038460399A942074687
:10274000EBD100E0384605B0F0BDF0B585B002929F
:102750000027FD22002B08D0002300291BD004787D
:10276000944205D20121234616E00B46394613E078
:10277000032910D3944219460ED1441C00252E463D
:102780002B46615DF6B2B140CB186D1C08360321B3
:10279000022DF6D100E01946921C04AC22704218BA
:1027A0000392C018451802980128019716DB002BE8
:1027B000019F13D00B9C0A9E00276846046003A863
:1027C00004AA29463346FFF77FFE002806D07F1C67
:1027D0000298874202DA0398A842EED101200299BA
:1027E0008F4200D0019805B0F0BD000070B50146E1
:1027F0004A78012300246A2A184600D020460B4D4F
:102800002D684026AD5D022D00D023461843022DD1
:102810000AD16A2A08D00020002A05D18A7801202E
:1028200000216A2A00D0084670BDC046200700205B
:1028300080B5C12200F002F880BD0000F0B581B083
:1028400015460E460746FFF751FD0024002804D127
:102850003846FFF799FD002802D0204601B0F0BDB0
:102860000E4800684021405C7978022807D16A2927
:1028700005D0002907D1B8786A28EED003E06A298C
:10288000EBD00228E9D00123384631462A46FFF72B
:102890000FFF00240128E0D10446DEE720070020D6
:1028A00080B5C222FFF7CAFF80BD80B5C422FFF702
:1028B000C5FF80BDF0B585B0144600270497039787
:1028C00003AA6B465A6004AA1A6002220126334604
:1028D000FFF73BFF01283D4600D10546049900293A
:1028E000304600D1084605400398142800D03E46E3
:1028F0003540002D11D076206070192020701422F0
:10290000E2707720C64330462130A070201D02F0CF
:10291000BBFA8820207624366676284605B0F0BDBE
:10292000014601200023F629024600D01A46B429A8
:1029300000D0184610437047B0B501240023F62A92
:10294000254600D01D46B42A00D01C462C438A429E
:102950002BD8002C29D0F62A03D1B421415C41297F
:1029600023D1002244231146C45CD2B294406118A2
:102970005B1C0832482BF7D100238A0715D10023AE
:102980004C241A46055DDBB29D40AA18641C08332E
:10299000502CF7D1064B012000249942034600D861
:1029A0002346002A00D0204603401846B0BDC0464A
:1029B0005BAC826070B50023002A08D00023521E51
:1029C00094B2055D0E5D6E403343002CF7D1D8B252
:1029D00070BD01700A0A42700A0C8270090EC17043
:1029E0007047F0B5A3B0164603AC202522462B460F
:1029F00001F0DAF80BAF384601F0E2F8142069462E
:102A00000E6048600121384622462B4601F0C6F888
:102A1000002804D10BA801F0BBF823B0F0BD02F0F0
:102A200026FA70B588B014466D4620262A463346ED
:102A300001F0BAF8284631462A46334601F0B4F888
:102A400004222046294602F019FA08B070BDF0B5FC
:102A50008BB01D4614460346109E02270120FF2E10
:102A600000D807461198002808D014203843C2B275
:102A700002A8194602F002FAFFB20EE0FFB202A865
:102A8000C2191846FFF7ADFF300A04D002A84670FD
:102A9000310A017001E002A806701421394302AE28
:102AA000F21914323046FFF7BCFF01951821394363
:102AB00001AB30462246FFF771F9002803DB01A87D
:102AC00000880BB0F0BD012002F0D1F9002A06D039
:102AD000491E8B5C0370521E401C002AF9D17047BE
:102AE000F0B58DB0174606780B2E3ED201910293B9
:102AF000002E13D0401C0021182200252B46445DD7
:102B0000D2B29440E3186D1C083A042DF7D18A0024
:102B100003ACA350491C001DB142EDD102F0A6FD4B
:102B200068460760212703AD3846294632462B46C2
:102B300003F04CFA202238462946029C234601F035
:102B400021F80198002807D012992120012322465C
:102B500001F012F8002809D102F088FD03A8002135
:102B6000202202F09BF90DB0F0BD022002F07FF9A7
:102B7000F0B58DB0024610780B2843D2012600280C
:102B80003DD002960191521C0024182500273E4694
:102B9000D35DEDB2AB409E197F1C083D042FF7D1E9
:102BA000A30003ADEE50641C121D8442EDD1052834
:102BB000029E24D10126F207039B53402C2B03D005
:102BC000542B01D0312B1AD110490B681C88002CD2
:102BD00006D0049D5540A54202D059888D420ED1A1
:102BE0006432059991420ADC06990198814206D126
:102BF000074A079B01260021934200D80E46304623
:102C00000DB0F0BD022002F032F9C04620070020CE
:102C100050C30000F0B58DB002461F4803681C8801
:102C20000120002C33D01078022801D208462EE073
:102C3000019102930B282CD2521C00251826002744
:102C40003B46D15DF6B2B140CB187F1C083E042F45
:102C5000F7D1A90003AE73506D1C121D8542EDD152
:102C60000122D307039858402C280299019D04D0D3
:102C7000542802D03128284609D1049D5D40A54240
:102C8000104604D04A88012000219542CED10DB0D3
:102C9000F0BD022002F0EBF820070020F0B585B06F
:102CA00004920C4602780B2A4CD22021217001217B
:102CB000002A3DD00499891E0191461C0023012160
:102CC00002920393182000221546B35CC0B28340E1
:102CD0005D19521C0838042AF7D1C9B26018049A49
:102CE000511A0122D2072B469343184A7A4402F024
:102CF00019FE27462046049906F01AF8C1B2361D7F
:102D0000019A91421BDA002D039B01DB3C4603E054
:102D100027223C466254401CC1B22F226254411CFF
:102D2000C8B2002222545B1CD8B2029A9042C8D387
:102D3000C8B2401E00212154C0B205B0F0BD07202A
:102D400002F095F8022002F092F8C046CB60000035
:102D5000F0B587B01C4617460D46064602F086FCC5
:102D60000C98069005A86946C86006A888604C6063
:102D70000F600D98002801D00C4900E00A49032299
:102D800030462B4600F0F2FE00280AD105990120BA
:102D9000014202D021780143217002F067FC07B0A4
:102DA000F0BD02F064F8C046010400000106000016
:102DB0000A020A43FF21090251400180704780B591
:102DC000FF218143000A814201D003F0D9F880BD80
:102DD000F0B5002307241E46155D0F5DF619751921
:102DE00005550126FF2D00D81E46671E002C3C46C7
:102DF000F2D101200021FF2D00D80846F0BDF0B52A
:102E000081B0002607240096155D0F5D330604D0BF
:102E1000AF4204D97F1E002303E0009B01E0FF378F
:102E20003346BFB27E1B06550126AF4200D31E4675
:102E3000631E002C1C46E7D1F0B201B0F0BD0000CB
:102E4000F0B583B0054601273802174C205C3842A4
:102E500013D03F20C0002258002168460160416025
:102E60002646283630462B4600F098FE002819D119
:102E7000304600F08DFE3802205C800710D53F20E0
:102E8000C000225800216846016041609434204609
:102E90002B4600F083FE002804D1204600F078FE87
:102EA00003B0F0BD01F0E3FF7C020020F0B581B07B
:102EB0007D208600294DA85D002848D03F20C7000E
:102EC000E8590478FC2C05D801252846FFF7B8FFFF
:102ED000FF2031E0FE2C19D0FD2C3BD10120FFF763
:102EE000AFFFE859411CE951A95DFF31A955C9B2AD
:102EF00001292CD941780091847802252846FFF7D2
:102F00009FFF240200980443FE2015E00120FFF7F4
:102F100097FFE859401CE851A95DFF31A955C9B296
:102F2000032914D900210A46FFF776FB044604253D
:102F30002846FFF785FFFC2008490A46D159491960
:102F4000D151915D40189055204601B0F0BD01204F
:102F500001F08DFF022001F08AFFC0467C020020B4
:102F6000F0B5B5B01290E948784402F0ABFE85792F
:102F700029AC204605F08EFEA085ED0801263540DF
:102F800084B2002C01D000F0C0FC29A803F0B8F8EE
:102F90003390002D0F9600D10F95119513A8C01DE9
:102FA0000E901BA8011D0C9128300D90F54B10962A
:102FB000A1E2072800D09EE21C69002C00D198E213
:102FC0007D208500585D002800D064E100F08AFC77
:102FD0004F783E46083EF1B2302901D900F090FC0E
:102FE000B91C0691C9B2884201D200F089FCE648BA
:102FF000784402F067FEE34C21460A9C09596A4670
:1030000057601BAB049313608A1C083020213346A1
:1030100000F0D0FDDB480059C019811F0822049838
:10302000FFF7C8FCD74C002801D000F069FC0A9FCC
:10303000E0593D21C900625C002A0FD03A22825C2F
:103040003223C254CF480346D859401DD8515A5D47
:10305000F3325A55595C0122002940D1811C1BAC26
:103060002046324601F00AFFC6492078322801D0B6
:1030700000F046FC0A9FCC590C98C85124200E46FB
:10308000FFF7DEFE06996018F051705D401A70552A
:1030900013A808220D99FFF719FD002001460246EA
:1030A0000E9E735CB74C6418257F5219D318237792
:1030B0000122FF2B00D80246491E0C460834F0D1ED
:1030C0000127FF2BAF4B00D88DE000F019FC3D200D
:1030D000C000185C0022002801D100F011FC099208
:1030E00001263046FFF7ACFEA64B0A9FD859421C7A
:1030F000DA51585DFF305855C0B2232801D800F08E
:10310000FFFBF5204000185C002826D03C46370223
:10311000DE552420FFF794FE9A4A0020D05511591D
:1031200024311151505DDC305055C0B2072800D811
:10313000E6E30F20400110180822039201F09EFEE2
:103140000398FFF77DFE8F4BDE5518590830185154
:10315000585DF8305855099F45E0002168460160E8
:1031600041601720000118182423044600F016FDC2
:10317000002800D0C7E3204600F00AFD2420FFF716
:103180005FFE80480246D1592431D151505DDC3078
:103190005055C0B2072800D8B2E313A80822FFF7A1
:1031A00095FC0020014602460E9B5B5C754C67183F
:1031B0003C7F1219D3183B77FF2B324600D80246CA
:1031C000491E0C460834EFD1FF2B00D998E30820A4
:1031D000FFF736FE099F6B4B0A9958580830585034
:1031E000585DF83058553D20C000185C002802D1C9
:1031F000012001025854109C0B9E1D46FFF756FEFD
:1032000028610221129A51403D22D200AB5C3B431F
:103210000B430022002B314600D01146002800D17C
:1032200006460E40664011980028564B02D1002EEB
:1032300000D165E3022018757D26B500585D002891
:1032400000D14FE31969012921D13F20C400185949
:10325000007801210022AE2800D111460F9A1143B7
:10326000012907D101210022AE2800D11146109872
:103270004140D9770120FFF7E3FD424B1859401C2C
:103280001851585DFF3058551969491E19610029B8
:1032900017D04C1EC0B2844200D30446002C00D18B
:1032A00020E3E0B2FFF7CCFD364B3F20C0001958B9
:1032B00009191950585D001B58551869001B1861F1
:1032C00019E11299022927D13D21C900595C002931
:1032D0001ED0F5214900595C00291DD00021684607
:1032E000016041600F2040011A181C4628341F4617
:1032F0000823204600F052FC002800D003E32046BB
:1033000000F046FCB000385C3B4605E0946E0000DF
:103310000121090203225A54C0B2032800D8EFE267
:10332000F52040003D21C900595C002915D0185CEA
:10333000002812D13F20C0001A58002168460160C1
:1033400041601C4628340423204600F027FC002856
:1033500000D0D8E2204600F01BFC0420FFF770FDEF
:10336000084B3F20C0001958091D1950585DFC300A
:103370005855012018759868401E9860D868401C00
:10338000D860B8E07C0200200C6E0000F5204400FC
:10339000195D3D27F800185C00285ED000295CD13B
:1033A0002025684645601BAA0260172000011E18F0
:1033B00001210023304600F0F1FB002800D0A2E2FA
:1033C0000894304600F0E4FB304600F005FC684607
:1033D00045601BAA0260012130462B4600F0DEFB4F
:1033E000002800D08FE2304600F0D2FB68464560EE
:1033F00013AA0260E84C283401210023204600F083
:10340000CDFB002800D07EE2204600F0C1FB204624
:1034100000F0E2FB6846456013AA026001212046E5
:103420002B4600F0BBFB002800D06CE2204600F0E9
:10343000AFFB1BA920243046224601F01FFD1920B6
:103440000001D5490D46281813A9224601F016FDA2
:103450002B460898195CF800185C00283FD000291A
:103460003DD0CE48185C002813D100216846016089
:1034700041601B2000011A181C46283420232046D6
:1034800000F08CFB002800D03DE2204600F080FBDD
:10349000C14B0A2018752EE005282CD17D20840010
:1034A000185D002800D11DE21D69002D15D0854250
:1034B00000D30546002D00D114E2E8B2FFF7C0FCAE
:1034C000B54B3F20C000195849191950185D401BD1
:1034D00018551869401B18610DE004204AE70921BE
:1034E0001975002807D01846283000F075FBAA4B44
:1034F00001E008201875197D00E01975C8B204288C
:1035000007DC022877DD03282BD00428F3D1986844
:1035100039E0062800DDDFE1BED17D208400185DA2
:10352000002800D1DEE1032800D8E9E10420FFF7FC
:1035300087FC3F20C000FA4B1958091D1950185D2F
:10354000FC3018550821FF221042D6D00124250254
:1035500000205855FFF7AAFCF14B5C551861072174
:10356000CBE71298022800D110E77D208000185C7C
:10357000002800D1B6E1FFF799FCE94B00219860E3
:10358000D9600421197506210028B6D07D20840059
:10359000185D002800D1A5E1072800D8B0E11298F5
:1035A000012812D1012040021858D96881420CD15B
:1035B0003F20C000195818461530082201F05EFC63
:1035C0007F2080000121D64A11540820FFF738FCE3
:1035D0003F20C000D24909580831D14A1150D04883
:1035E000005DF830CE490855FFF760FCCC4B186100
:1035F0000520187552E7002807D0012803D00228BB
:1036000000D119E677E79868FCE000269E60DE604E
:103610001E61184615300822314601F03FFCC04DAE
:103620002835284600F0D8FABD4C9434204600F0E6
:10363000D3FABB4B3D20C000185C002853D00120BA
:1036400000021E54F5204000185C002845D0684652
:1036500006604660772080001A181F46042328461B
:10366000314600F09BFA002800D04CE1284600F0DB
:103670008FFA684606604660172000013A1820233A
:1036800028463146174600F089FA002800D03AE172
:10369000284600F07DFA6846066046601920000161
:1036A0009F490A1820232846314600F077FA00285F
:1036B00000D028E1284600F06BFA684606604660B4
:1036C0006023204631463A4600F068FA002800D0D0
:1036D00019E1204600F05CFA04E0172000011818F8
:1036E00000F07AFA8E4B7D2005908600985D0328C5
:1036F00000D805E13F20C500595977208000079088
:103700001F1804243846224601F0B8FB2046FFF774
:1037100097FB834A5059001D5051905DFC309055E5
:103720008049515C002916D0C0B2032800D8E7E0D8
:1037300051594920000110180424224601F09EFB33
:103740002046FFF77DFB764A5059001D5051905D91
:10375000FC30905524E0744800684021405C1728F4
:103760001ED8012181407148014219D000213846FC
:103770000A46FEF751FF6A4A002811DA002138464E
:103780000A46FEF749FF664A6949884208DB059800
:103790008000105CC8E7C0467C0200208E04000058
:1037A000614800684421415C890716D5007A0228E7
:1037B00005D0042811D10798105C01280DD8905D20
:1037C0000328144600D89BE00420FFF739FB60591A
:1037D000001D6051A05DFC30A055FFF767FB504B0A
:1037E000986025214901129A022A09D1595C0029C1
:1037F00006D0504A5168002900D150600021116064
:103800000121197500281ED07D208500585D0028F3
:1038100068D001261299022918D012990129374639
:10382000109C00D0E9E423286AD92420FFF708FB84
:103830003F20C0003A4B195824311950585DDC30F4
:1038400058550127D9E40320187554E6012857D9A3
:103850003F21C9000A9159580A78022A0B9600D1D3
:1038600035E4012A01D1FFF7B3FB002A48D13D20FE
:10387000C000185C002843D12F4E7E44304602F031
:1038800021FA8088FFF79BFA304602F01BFA2449A0
:103890008088C0B2042806D0022804D001282FD185
:1038A000119800282CD00A9E8859401C8851485DE8
:1038B000401E4855C0B223280C4621D92420FFF7CA
:1038C000BFFAA0592430A051605DDC306055012062
:1038D000A0770027234686E401460839032901D34F
:1038E000FFF767FB02F000FC29A9884202D1339858
:1038F00002F006FC29A8808D002804D135B0F0BD67
:10390000012001F0B4FA01F0B2FA29A8002585855A
:10391000339802F0F5FB02480575204601F0A7FA3E
:103920007C0200208E04000020070020800180001F
:10393000030000800002002082650000F0B581B025
:1039400000900B09012213405B42194C1C40CD082A
:1039500015406D42174E2E404701774067404C0995
:10396000144064421448204078408E091640764244
:10397000124F37404740C80910404042104A0240A9
:103980007A4098272F40009DED0E49012943C9B286
:10399000794079251D404D40F32121406940AE23F7
:1039A00033404B401E2101405940104601B0F0BD4C
:1039B000E2996DB7618EBCF2C4B35F3EA8E2AB2E54
:1039C00070E4434FF0B581B015460E4607463C788B
:1039D000012000210090FFF7B1FF002C12D07F1CC6
:1039E0001F22224042403C781046FFF7A7FF7F1C71
:1039F000002CF5D106E0FFF7A1FF024630785040D9
:103A00006D1E761C002DF6D10824FFF797FF641E6B
:103A1000FBD1009A504001B0F0BD000070B51446D3
:103A20000A4601460D487844FFF7CCFF232205469D
:103A3000D54020239E1A0B46B3402B431646203E0A
:103A40000D46F540002E00DA1D461F232B40237043
:103A5000531F641C002A1A46E9D170BD2A54000085
:103A6000F0B599B01D4603460020179016901070CF
:103A700014296FD11E990020002904D0012969D191
:103A80000192082000E001920CAF3870781C1422DB
:103A9000194601F0F3F915210026324630463B78ED
:103AA00000021843134608337F1C491E0224E443D6
:103AB000A2420EDB0D3213460A3B0446DC401F23B4
:103AC000234002ACA355521F761C092AF3DC521F77
:103AD00000E01A460029E2D1002A019F07D0052103
:103AE000891A88401F21014002A88155761C02A82E
:103AF00016AA3146FFF792FF0020002E394611D05A
:103B000002A801780023144A7A44202920D2581CA4
:103B1000AB421DD202ACE45C145DFC54B0420346DF
:103B2000F3D3391800220D4B7B4416AC2478202C9B
:103B30000ED28418641CAC420AD816ACA45C1C5D7E
:103B40008C54521C082AF0D300238B54801801E0B7
:103B50000020387019B0F0BD5453000034530000F9
:103B600003B4014841E000000C00000003B4014828
:103B70003BE000001500000003B4014835E0000000
:103B80001B00000003B401482FE000001C000000EF
:103B900003B4014829E000002F00000003B40148ED
:103BA00023E000003200000003B401481DE00000E3
:103BB0003300000003B4014817E000003D0000009E
:103BC00003B4014811E000005600000003B40148AE
:103BD0000BE000005800000003B4014805E00000BD
:103BE0005F00000003B40248FFE7024908470000F5
:103BF0006F0000000100120070B594B014460A4630
:103C0000014601A8FCF719FA01460020002912D04C
:103C100001A8027800216B461960011D21250CAE18
:103C20002846334602F0D2F9202228463146234660
:103C3000FFF7A8FF012014B070BD70B59EB0144608
:103C400014AAFFF7D9FF0025002812D0212001A9CE
:103C500014AA01252B46FFF78FFF00280CD101AED7
:103C600008363046FEF770FA21222046314601F030
:103C70000BF928461EB070BD01F0F9F8F0B58BB015
:103C80000746119C012F17D0129E032F12D121221B
:103C900005AF084611463A46FEF7A3FE00256846E2
:103CA00005601421384622463346FFF7D9FE002826
:103CB00036D136E0022F25D10393049405A81425AC
:103CC000457000240470861C2122084611463246A5
:103CD000FEF787FE022F0DD11099002908D0684603
:103CE000056000220498334602F0B4F8002817D18A
:103CF000002516E06846039912C005A816219623F0
:103D0000049D09E025460024684614C00648301882
:103D100083B22122084611462A46FEF798FE2C540B
:103D2000012528460BB0F0BDFFFF000070B59AB02A
:103D30000E4604462069002500282AD0217BA06871
:103D4000401CFF31C9B211AA00252B46FFF775FFB1
:103D500000281ED0F388B288A0680078716B3325E4
:103D60006E46B56004AD22C611A9FFF787FF002596
:103D700000280ED0246904AD284604F0ADFF421C93
:103D80002846214604F054FF01250021002800D0D8
:103D90000D4628461AB070BDF0B585B00A460646F5
:103DA0000020B07334460E34317B082927D803AF86
:103DB000002101910825384602922A4601F06EF84A
:103DC000327BA81A3818B16801F05EF8029D2735D9
:103DD000284604F081FFC6B220462946324601F04B
:103DE0004DF82020A055A019421C0298416C38467D
:103DF000FEF770F83018201801994170012005B0C5
:103E0000F0BD000070B598B004466D4660212846AC
:103E100004F0FAFEA16928461C30402204F074FF29
:103E20005C20295C0020002917D1227B082A14D8A5
:103E3000267D082E11D86D46A81A1430A16804F00A
:103E4000E8FEA81B1C302169324604F0E2FE04485B
:103E50006022294604F0DDFE012018B070BDC04686
:103E60000002002010B50C490860FEF7FDF825207F
:103E700040010A4901240C5401F028F92120C10015
:103E8000074804F0C1FE002003F0E2FD204603F0E5
:103E9000DFFDFCF7A3F910BD200700207C02002005
:103EA0002407002080B506480078002801D104F0DE
:103EB0009DFC044979440020024603F0C5FF80BD03
:103EC00024070020DC54000080B582B00190064831
:103ED000784401F0F7FE293001A9012202F05CF8D4
:103EE000FFF7E0FF02B080BD2C5F0000014600201C
:103EF000022903D888000249794408587047C0460F
:103F0000F453000080B5012805D0002807D1002017
:103F1000FFF7DAFF80BD0120FFF7D6FF80BD00204C
:103F200003497944034A7A4404F05AFC80BDC046F0
:103F3000130000002700000001460020012903D8DB
:103F400088000249794408587047C046B4530000BD
:103F500080B5002802D0FFF7A5FF80BD0648784451
:103F600001F0B0FE2921435C002004497944044A51
:103F70007A4404F015FC80BD9E5E00007DFFFFFFCB
:103F800091FFFFFF80B5002003497944034A7A443A
:103F900004F026FC80BDC046ABFFFFFFBFFFFFFF64
:103FA00080B5FF2002F06CF880BD80B50120FCF7E1
:103FB000B1FCFFF777FF80BD80B50020FCF7AAFCBD
:103FC000FFF770FF80BD80B50120FCF7A3FCFFF771
:103FD00069FF80BD80B50020FCF79CFCFFF762FF05
:103FE00080BD80B50020FCF795FCFFF75BFF80BD2E
:103FF00080B50120FCF78EFCFFF754FF80BD80B533
:1040000000200146FDF736FBFFF74CFF80BD80B571
:1040100001200021FDF72EFBFFF744FF80BD80B596
:104020000020FCF777FCFFF73DFF80BD80B5012045
:10403000FCF770FCFFF736FF80BD80B501784906BC
:1040400001D001F0B7F880BDB0B505460720284083
:104050000024012814D0022814D1002909D00B48CB
:1040600002F01CF868B200280ADA01F089FF002487
:1040700006E0FF2152310548002202F027F80446ED
:104080002046B0BD022000F0F2FEC04660090020CC
:10409000F0B581B0E04D28780C2810DD0D286CD0EB
:1040A0000E2800D1C7E015280FD1DC4880790128FF
:1040B0000BD1A879000708D4052000F0D8FE052808
:1040C00000D111E10C2800D181E2D54C00276760B6
:1040D00001202070204601F0A1FF042002F01EF80C
:1040E0006060692800D05DE101F008F801F008F88F
:1040F000C225F84E7753042002F010F860600028C3
:1041000000D164E2972800D161E2C424305900282C
:1041100000D15CE2705BAA27C821715C80B2884242
:1041200000D354E201F0C6FF002800D04FE201F0B6
:104130003FFFB84204D101F063FFB84200D046E22D
:104140003059715B49014018D0217158002902D0C3
:10415000884700280AD0012803D13059715B4901F2
:1041600040180178490601D001F024F8705B401C2A
:10417000705331590029CFD129E2D54C002767600F
:1041800001202070204601F049FF042001F0C6FF05
:104190006060002800D11AE2972800D117E2692850
:1041A00000D099E100F0AAFF00F0AAFFC225C94E95
:1041B0007753042001F0B2FF6060002800D106E2CE
:1041C000972800D103E2C4243059002800D1FEE131
:1041D000705BAA27C821715C80B2884200D3F6E1E7
:1041E00001F068FF002800D0F1E101F0E1FEB842E3
:1041F00004D101F005FFB84200D0E8E13059715B0D
:1042000049014018D0217158002902D08847002860
:104210000AD0012803D13059715B49014018017857
:10422000490601D000F0C6FF705B401C7053315945
:104230000029CFD1CBE1EA4D00276F600120287023
:10424000284601F0EBFE042001F068FF04466C6094
:10425000692C00D0E6E000F051FF00F051FFC224CD
:10426000E04E3753042001F059FF6860002800D168
:10427000ADE1972800D1AAE1C4257059002800D1EA
:10428000A5E1305BAA27C821715C80B2884200D3C7
:104290009DE101F00FFF002800D098E101F088FEB9
:1042A000B84204D101F0ACFEB84200D08FE17059A1
:1042B000315B49014018D0217158002902D088474C
:1042C00000280AD0012803D17059315B49014018F8
:1042D0000178490601D000F06DFF305B401C30537F
:1042E00071590029CFD172E1BD4C002767600120D0
:1042F0002070204601F092FE042001F00FFF606064
:10430000002800D163E1972800D160E1692800D03E
:1043100018E100F0F3FE00F0F3FEC225B14E775332
:10432000042001F0FBFE6060002800D14FE19728D7
:1043300000D14CE1C4243059002800D147E1705B22
:10434000AA27C821715C80B2884200D33FE101F006
:10435000B1FE002800D03AE101F02AFEB84204D1B3
:1043600001F04EFEB84200D031E13059715B490195
:104370004018D0217158002902D0884700280AD05F
:10438000012803D13059715B490140180178490671
:1043900001D000F00FFF705B401C705331590029B1
:1043A000CFD114E1C4258F4C6059002800D106E11B
:1043B000C226A05BAA27C821615C80B2884200D3D4
:1043C000FDE001F077FE002800D0F8E001F0F0FDFC
:1043D000B84204D101F014FEB84200D0EFE06059B9
:1043E000A15B49014018D0216158002902D08847BB
:1043F00000280AD0012803D16059A15B4901401867
:104400000178490601D000F0D5FEA05B401CA05306
:1044100061590029CFD1D2E02C080020B40A002035
:1044200058090020DC206F4D2958002911D0642242
:1044300064290B4600D31346CA1A2A50D821002AF1
:1044400007D16958002904D0E022AA582A50002038
:104450008847002C00D1BAE0972C00D1B7E0C424E3
:10446000285900282FD0C226A85BAA27C821695C3A
:1044700080B2884227D201F01DFE002823D101F02E
:1044800097FDB84203D101F0BBFDB8421BD12859BA
:10449000A95B49014018D0216958002902D08847FA
:1044A00000280AD0012803D12859A95B49014018E6
:1044B0000178490601D000F07DFEA85B401CA8539E
:1044C00029590029D2D1C820285CC221695A7AE032
:1044D0005809002024070020C425424C60590028B8
:1044E0006DD0C226A05BAA27C821615C80B2884239
:1044F00065D201F0DFFD002861D101F059FDB8421D
:1045000003D101F07DFDB84259D16059A15B490149
:104510004018D0216158002902D0884700280AD0CD
:10452000012803D16059A15B49014018017849066F
:1045300001D000F03FFEA05B401CA0536159002950
:10454000D2D13CE0D420274C2058002803D0E97871
:10455000490800F073FEC425605900282FD0C226F8
:10456000A05BAA27C821615C80B2884227D201F0F3
:10457000A1FD002823D101F01BFDB84203D101F0B9
:104580003FFDB8421BD16059A15B49014018D021C1
:104590006158002902D0884700280AD0012803D199
:1045A0006059A15B490140180178490601D000F02B
:1045B00001FEA05B401CA05361590029D2D1C82044
:1045C000205CC221615A814201D301F073FD01F0E8
:1045D00071FD002801D100F06BFC012001B0F0BD9D
:1045E0005809002024070020F0B5A5B01E46174644
:1045F0000C460546FEF7FAF8002807D0A949794489
:104600000A22384604F005FB25B0F0BD0497A34804
:1046100000684021405C0027112808D12846214627
:10462000FEF743F907469D4800684021405C1D287D
:1046300001D011281AD128462146FEF7F9F80028A2
:1046400010D07B208000002F07D09549085C0028FF
:1046500003D0083D2846FDF793FD002F3BD093493A
:1046600079443AE08D4800684021405C1D2801D023
:1046700011281AD128462146FEF712F9002814D035
:104680007B208000002F07D08549085C002803D0DC
:1046900028460838FDF774FD2E78FD2E34D1687851
:1046A000A97809020143C81C2FE02846FDF7A4FEA3
:1046B000002816D079480068406B0028A4D001F08B
:1046C00001FB0146A8786A461060EB1C00220498A2
:1046D00001F0C0FB98E774497944049804F0F4FAB7
:1046E00092E76E4C2068C7882846FDF7FFFD03213E
:1046F000002802D0206887880421380A45D005AAFE
:1047000057701070022443E0701C2918153920AC32
:104710001422204604F07DFA207800281CD00020C6
:1047200020A9674A7A440B781C09145D05AD2C5406
:104730002C180F251D40535D6370491C801C2928CF
:10474000F1D3282005AB0021195441215D4A7A4458
:10475000049801F0E7F857E703200121FD2E00D06F
:104760000846295C4018295C4118002F4B4C3DD06D
:10477000685C0818401C295C00293BD04C293AD1C0
:10478000291849784018801C35E005A807700124D5
:1047900005A800196918142503902A4600F06EFB3D
:1047A000FF20EA303E49085C002810D03B480068F2
:1047B000C28801200021974200D00846694608605F
:1047C00014210398049A3346FFF74AF91CE70120A5
:1047D00069460F6048602C43A1B2B3B205A8049C9F
:1047E0002246FEF734F9002121540DE7681840787D
:1047F000891C09E0401C291849784018801C295C54
:104800000818401C295C491C08182A5C411C4C2AC9
:1048100000D001466F187878B97809020143F8781A
:104820003A7912020243100408431F901FA820493E
:104830007944042204F057FA00280DD01FA81E491D
:104840007944042204F04FFA002800D0DCE61B492A
:1048500079440B220498D5E62468207919AD287094
:1048600039461131681C1526324604F0D2F9A08869
:1048700001216A4603C205AC502328463146224630
:10488000FEF7E5F8002121544420385C69460860B1
:104890004121084A7A44049823465AE72007002019
:1048A0007C020020A25000007E4B0000E54B00007F
:1048B000304A0000D1490000404A00005C4E000030
:1048C000614B0000484B0000F0B597B001AD50249B
:1048D0002846214604F098F94548464F391815A84E
:1048E0000822FEF7F3F8444838187B2189002A464D
:1048F0002346FFF779FE414E40223046294604F018
:1049000003FAA3208000385C142811D13C483818E1
:1049100040497944042200F0BDFA002808D1394802
:1049200038183D497944042200F0B4FA00282FD009
:10493000354C374626682736304604F0CDF9024616
:104940003D4641352846314600F098FA266827361C
:10495000304604F0C1F92021295430463E4604F087
:10496000BBF92818401C83218900224A505015A801
:10497000FDF76AFB05462068273004F0ADF92818DA
:10498000401C3018412100224254012017B0F0BDD4
:104990001E48381801210022FDF73EFE034630462E
:1049A00041301F2B06D0032B07D0012B0BD11B4905
:1049B000794404E01A49794401E01A49794406220D
:1049C00004F027F904E01421174A7A4400F0AAFF02
:1049D00035464135284604F07FF9C4B228198321B1
:1049E000890078500A483818FDF72EFB2018C8E7D0
:1049F000820200007C0200208A02000000020020E7
:104A00008D020000910200002007002095020000A6
:104A10009902000095490000934D0000FC480000F9
:104A2000FC480000FC480000F448000010B58AB0C3
:104A300020206946486002A808600D4C94340D4A55
:104A40004132012100232046FFF7A8F800280CD1AD
:104A50002046FFF79DF807484121074A7A4402ABF8
:104A600000F060FF01200AB010BD00F000FAC0465F
:104A70007C020020000200207148000010B52520B3
:104A800040010D4C215C0020002900D010BDFFF733
:104A90001BFF8F20C000205808496158491C0B1A81
:104AA000074855301421074A7A4400F03BFFFCF7D1
:104AB0005DFB012010BDC0467C0200207C0400008C
:104AC000000200202A480000B0B582B02520400135
:104AD000164D285CA97F01430024002902D02046FE
:104AE00002B0B0BD12482A18294615316846FEF7B3
:104AF00086F90028F3D00F48285C01240328EED162
:104B000000206877F52040003D21C900695C00293C
:104B100007D0295C002904D101242C5400202875D9
:104B2000DDE70A2028750124D9E7C0467C02002071
:104B3000850400008404000080B5FFF777FF0120A2
:104B4000FDF70AF980BD000010B5044604497A2239
:104B5000FEF7A4F800212046FEF70AF810BDC04673
:104B60000002002010B5074CC834204604F0B4F809
:104B7000202121542018002141700120FBF7CAFE9A
:104B800010BDC0466009002080B50349794400206B
:104B9000024603F059F980BD8048000080B5034902
:104BA00079440020024603F04FF980BDDC48000044
:104BB00080B505497A22FEF771F80449794400204E
:104BC000024603F041F980BD000200206449000064
:104BD00080B505497A22FEF761F80449794400203E
:104BE000024603F031F980BD00020020F0490000C8
:104BF00080B5034979440020024603F025F980BDC1
:104C0000944A000010B58CB06C46204604F042F87F
:104C1000A0850D49084206D1684601F071FA0A9054
:104C2000FF2001F02DFA01F05FFA6946884202D1B7
:104C30000A9801F065FA6846808D002801D10CB011
:104C400010BD00F014F9C046FFFF0000F0B59FB0A2
:104C50000446002C2FD10DAC0026482220463146B8
:104C600000F01CF9032525720D9633480E9020465E
:104C70000930344979440526324603F0CAFF2046FC
:104C80001730314F7F443946324603F0C2FF204689
:104C900027303946324603F0BCFF26462D362B49D5
:104CA000794430462A4603F0B4FF402011212154B4
:104CB0001A9604201E9021480460214C2120C10036
:104CC000204603F0A1FF01AD284603F0E3FFA885CD
:104CD00085B2002D0BD001A8002181850B9801F031
:104CE0000FFA0B9801F00CFA052DE7D01FE001AD8B
:104CF000284601F005FA0B9000F0E8F9FDF7B4F949
:104D0000002002F0A5FE012002F0A2FEFFF7CAF883
:104D1000FBF764FA01F0E8F9A84202D10B9801F020
:104D2000EFF901A8808D0028C8D000F0A0F8FFF7A7
:104D300069FF1FB0F0BDC0463A00320020070020D6
:104D400024070020694600005E4600004746000038
:104D5000F0B59FB00446A068002831D10DAD002702
:104D600048222846394600F099F80320009028721E
:104D70000D9737480E902846093037497944052762
:104D80003A4603F046FF28461730344E7E443146FB
:104D90003A4603F03EFF2846273031463A4603F0B4
:104DA00038FF2E462D362E4979443046009A03F0BE
:104DB00030FF4020112129541A9604201E90A5602E
:104DC0000027244E01AD284603F064FFA885304239
:104DD00007D101A801F094F90B90F8070FD001F06A
:104DE0002BF901F081F901A9884202D10B9801F059
:104DF00087F901A8808D002827D10127E2E701F07B
:104E0000B1F80D2802D3FF2001F03AF960680228BA
:104E100012D004280BD00328E1D1E0680021816181
:104E2000A168E068FEF782FFE1688861D7E7A168C2
:104E3000E068FEF7B1FFD2E7E068FEF7E3FF002885
:104E4000CDD0A068FFF70EF8C9E700F010F8C04613
:104E50003A003200FFFF00006145000056450000A7
:104E60003F45000080B5002001F04AF980BD10B533
:104E7000044601F039F9214603F018FF10B5044645
:104E800003F0CBFE204610BD10B5044603F0C5FE6E
:104E9000204610BD80B503F0CBFE80BD10B50446A2
:104EA000CBB211461A4603F0BCFE204610BD0000EE
:104EB00080B503487844052101F0F0F880BDC04674
:104EC0000848000010B51648C078032807DC012800
:104ED0000DD002281FD1134802F041F910BD04285B
:104EE00016D0082817D10F4802F037F910BD0D4C25
:104EF0000121204602F02CF9204602F00BF90A4865
:104F00008179002908D10021C1600161416110BD92
:104F1000044802F020F910BD0520FFF7A8FFC046A5
:104F20002C080020740B0020B40A00207F210140CF
:104F30000020032903D8C8B201490818007B704734
:104F4000B40A002080B51448C2787F21114002794C
:104F5000042A15D0022A06D0012A1CD1811D10482E
:104F600001F0E0FF80BDC9B2032914D84A000B4B01
:104F70009A1800231382821D094802F058F880BD58
:104F8000C9B2032907D8054A521843791373821D01
:104F9000034801F0F5FF80BD2C080020B40A002072
:104FA000740B002070B515460E460446FF2D1BD825
:104FB0000E4850210170202101714571E91C81705A
:104FC00080222243C270090A4170062101F066F86E
:104FD0003046294601F062F87F2020404000044915
:104FE00008187D210901018270BDC0462C080020EF
:104FF000B40A002080B50A46014682201423FFF738
:10500000D1FF80BD80B50A46014683201423FFF7F7
:10501000C9FF80BDB0B5294988784A781202024399
:1050200008780F280ADC0E2821D00F2834D1002060
:10503000012A38D1FFF746FF0120B0BD10282FD03C
:10504000162829D11E4B1C780120002C2BD10A20B8
:10505000187006209871FF202A30824200D3024641
:105060005A80C91C184803F0D4FD0120B0BD144873
:105070008168643181601621124A435A002B08D09E
:105080006424642B1D4600D325465B1B4352134208
:105090000ED0891E0E29F0D10220FEF7F9FFB0BD17
:1050A0000020032A00D2B0BDFFF74CFF0120B0BDA5
:1050B000002101700520FFF7DAFEC0462C08002011
:1050C000B40A0020FFFF00006009002080B500F056
:1050D00049FF0D2802D3FF2000F0D2FF0548182118
:1050E00003F092FD00F098FB03480021016041604D
:1050F00080BDC046B40A0020CC0A002070470000E2
:1051000002480021016041607047C046CC0A00207F
:10511000F0B589B00546084600F0D4FD0446002CE1
:1051200043D02069002840D0284600F0CBFD01463E
:1051300002AD1C222846019203F06BFD2168E98034
:1051400062682A81A0681A4F65233B7089B292B2C7
:105150004A434243D1084E1C07231A4200D10E464F
:10516000314600910426864070181D30B870000A40
:1051700078700321384600F091FF2846019900F02D
:105180008DFFA06838700121384600F087FFE06885
:1051900000F098FDB1B200F081FF009885B220695F
:1051A00000F090FD294600F079FF09B0F0BDC0463F
:1051B0002C08002070B500F085FD044620787F267D
:1051C000064000F077FF002830D1002E2ED0E06995
:1051D00000281DD000F076FD0546052E02D1A07EE8
:1051E000002824D0284603F077FD064612486521A2
:1051F000017031461C318170090A4170032100F0B1
:105200004DFF1C21204600F049FFB1B228460BE0BB
:10521000094800214170652101701C25857003211A
:1052200000F03CFF2046294600F038FF70BD2046C4
:105230002946FFF76DFF70BD2C08002070B50446AD
:10524000002C28D01448066845688E4201D16D1C98
:1052500045600E43002902D00660324605E0002278
:10526000026042600D4B5B1C1E438A4201D000214C
:105270004160082D0CD30321284603F0D5FB012201
:1052800090073043002900D03046D107884300E022
:1052900030462946A04770BDCC0A0020FFFFFF7FA3
:1052A000F0B581B00F4E01243470B11CA720470027
:1052B0007A1C204600F0D8FE054675707A1B7719D7
:1052C000F91C022000F0D0FEB8702D187619F47089
:1052D00000F0BEFE3071902070710020B071E81DAA
:1052E00001B0F0BD60090020F0B587B00722104280
:1052F00007D00446E0B289B2FEF7A6FE80B207B03E
:10530000F0BD03924B2295008023BB4FB94E04465B
:105310000493102202400B04069400D1C4E0002A3A
:1053200000D0C1E001910292059007E0A9B20022ED
:10533000304600F0CBFE012000F070F900F0BAFE1C
:105340000028F3D17D200001B9680C1838780928AD
:1053500048DC0728019950D009286BD10021A748C3
:10536000009101F0EDFB13E0A9487844052100F01D
:1053700095FEA9B20022304600F0A8FEB868A0420F
:1053800000D32CE1FFF746FE00F094FE0028F0D198
:105390009A4801F009F90028E6D0019B98B2C11D96
:1053A0004908A92900D320E104991031944A1154E5
:1053B000101800994170501D991C8BB20193114631
:1053C0001A4603F02AFC05218D4803F01DFC0498C1
:1053D000C01CC1B20198401D83B28848884A01F0C0
:1053E000DDFB46E00A2801990DD00B2825D189B2B2
:1053F0008648784400F07CFA3BE089B282487844E1
:1054000000F076FA35E08CB22846253080B284422E
:1054100000D9EAE053203070B170080A707003219F
:10542000304600F03BFE7648214600F037FE002073
:10543000387021E0002800D1D4E00698C0B289B2CB
:10544000FEF702FE002814D0CCE072487844052113
:1054500000F024FEA9B20022304600F037FEB86802
:10546000A04200D3BBE0FFF7D5FD00F023FE0028EB
:10547000F0D138780028E8D10020B87138707880F1
:105480000699890600D539E75E487844052100F081
:1054900005FE069C60B200280598029A04DA0520F1
:1054A00000F0EEFD029A0598002A05D1400600D5CD
:1054B00091E00020B8713870002078805648784418
:1054C000052100F0EBFDA9B200243046224600F091
:1054D000FDFD03282FD3B178727812020A43D11C44
:1054E000814228D1FFF796FD788839780029E5D0E8
:1054F0000028E3D0424B19780591049A11463032C6
:10550000D2B2059B934200D0F8E63D4B5A78A72AC9
:105510003ED0022A11D0012A00D0EFE69978DA783D
:105520000A43002A00D0E9E6069C03980440FFF7EE
:10553000B7FE01463EE00020BDE79A780592DA7892
:10554000059B1A43002A00D0D8E608462A30C0B28C
:10555000059000F055FD059988422DD1012028497C
:105560000870881C402100F03FFD25494870811CCF
:105570001F4A121D05921140049B1033204A5354B8
:105580001346C11C059A11401A465454011D1AE0D5
:105590009A780592DA78059B1A43002A0B4600D0C8
:1055A000ACE6174801464C70184610300870069C4F
:1055B0001C430221039A09E0692011490870049AEA
:1055C000501D48700221039A069C1440E0B2144218
:1055D00000D19EE68EE67888054940188EE60520C3
:1055E000FFF745FC0420FFF742FC0220FFF73FFCD9
:1055F000FBFF00002C080020B40A0020D40A002081
:105600006009002032420000F3FBFFFF0FFCFFFFA8
:105610005243000070420000FE41000070B5054694
:1056200011487844052100F039FD4B2081000C4ED3
:1056300000243046224600F049FD3078152806D86F
:10564000012181400748014201D0002D05D1FFF71B
:10565000E1FC0124002800D10446204670BDC0466C
:105660002C080020207020009A40000010B50C4843
:105670007844052100F012FD084C4B2081000022E7
:10568000204600F023FD20780E2801D0FFF7C2FC51
:1056900000F010FD0028F0D110BDC0462C080020FD
:1056A0004C400000F0B581B015460F460090524ABC
:1056B00097420ED0504C40262046314603F0A4FAC3
:1056C000402D2A4600D332462046394603F0A5FA3B
:1056D000494A907801280BDC002832D0012879D182
:1056E000D01C04211446FEF771FA4021204634E014
:1056F000022830D005286DD11079D17809020143F4
:105700003E4C2068002688426AD12068002828D0B4
:1057100017463B4968183B4A13686D1FADB2AB4250
:1057200000D210680D1D054081B23B203B2900D3FB
:105730000546354E3068791D2A4603F06EFA366804
:105740003EE00026967156711671D67040211046C3
:10575000009A904744E028484021009A904700264C
:105760003EE09079517909020143284801600168BF
:105770004908A82934D801682248016051781746A1
:10578000127812020A4322490A601F49214E0E6014
:10579000691F8AB21A495218D21C0368ED1FADB2B4
:1057A000AB4200D20268CB1C1340081D10403925C3
:1057B000392B00D80546F91D30462A4603F029FA50
:1057C00010480168491B016070190F490860206882
:1057D000401C20600B48016801200226002907D1E7
:1057E0000648002101600848016006480160304613
:1057F000C0B201B0F0BDC046180B0020580B00200D
:10580000FBFF0000600B0020640B00205C0B0020FD
:10581000680B002060090020034800210160034854
:105820000160034801607047580B0020640B0020A2
:10583000600B0020F0B581B0274A1568274B196826
:10584000002921D0002D1FD00090274C671D3B263A
:105850003846314603F0D8F9204A0520A070234885
:105860000168090A2170006860701D490868000A13
:10587000E070086820710968106800290CD03B2886
:1058800000D81668384611E0154800210160116003
:105890001448017019601DE03926392800D81668AF
:1058A0001068000A60711068A071E01D2946324638
:1058B00003F0B3F9094B009A07491868801B186078
:1058C000A8190860064801460868401C0860064898
:1058D0004021904701B0F0BD640B0020600B002018
:1058E000580B0020B40A0020180B0020680B002081
:1058F00080B500290BD0064A00231360054A1160C9
:10590000054A064B1360064A1160FFF793FF80BDFE
:10591000580B0020600B0020640B00206009002061
:105920005C0B002081B0F0B58EB015460C46139389
:105930000690002800D1B6E1022C00D2B3E106980F
:10594000214603F061F913A809902978002900D1B4
:10595000A9E1671E002602E0A8194178761CC8B2AA
:10596000002801D02528F7D1BE4200D33E46069C30
:1059700020462946324603F050F9BF1BA41906946D
:10598000002F00D18FE1A95DAD19252900D087E155
:105990006B1C002020210A22089204900590079099
:1059A0000446084604E009990A1D09920968049111
:1059B0001D46224629786D1C00242D29F9D047293F
:1059C00018DC2F2926DD0B46303B0A2B00D366E17D
:1059D0003029044600D10C46079B002B00D004461A
:1059E0000A23079843435818303807902B4620461F
:1059F0001446DDE7672904DD722921DD73293AD1D8
:105A000022E062293CDC48294BD101460120059067
:105A1000084617E0252958D02A2926D02E2900D05B
:105A20003DE129782A2900D03AE16A786B1C0124EB
:105A30002A21482AB7D0682AB5D0732AB3D02FE1DB
:105A4000682936D11021089109990B1D0993032368
:105A500013400968012B00D1BBE0022B00D1BAE052
:105A6000032B2B461446A3D0C6E0297802247329C1
:105A70002B4698D014E1752929D078291CD00EE145
:105A8000632900D19BE0642900D008E102900397CC
:105A90000998011D09910068C11742184A40C00FBA
:105AA0001CE0582900D0FAE0014601200590084684
:105AB00002E0702900D0F2E0029003970998011DDE
:105AC000099102680020102709E025207BE0029060
:105AD00003970998011D0991026800200A270124F3
