:02000004C0D06A
:1000000010B5044662B605F0BBF8002C0DD00120F7
:1000100000022168814205D1606801280AD1A068E8
:10002000002803D104F07CFF02E0002004F09CFFD4
:10003000002010BD204605F019F8F0B581B0044647
:100040000020002A1CD00B780A2B19D89D0001260D
:100050003543954214D82370002B10D00096271DED
:100060004D1C002601210022284602F0DBFA01C7C0
:100070002D1D761C20788642F4D3009800E030468F
:1000800001B0F0BDF0B58FB0012040024A4C00270E
:1000900001902754FF2040000290275203AE3046C3
:1000A00008F0C8FF0546B585A8B2002812D005287B
:1000B00077D003A887850D9806F0B0F90220029941
:1000C00060523F486F21017045700121204602F0C7
:1000D00049FE58E003A806F0A1F90D90208802F02F
:1000E00048FE2078002802D03448029D2FE0344A90
:1000F000507813780021354D7D44354E7E446F5C39
:10010000BB4202D1775CB8420AD0491C0D29F6D314
:100110006D200002CBB20D210D2B029D01D116E006
:10012000029D2C487844405C002809D07F20830041
:10013000672000021279002A09D0E25A052A06D067
:10014000880025497944085805F04AFF80471D4931
:1001500060529321C900615C00290CD0019BE15CD5
:10016000EF220A40E25409210903884203D05D21AD
:10017000154A01235354615B020A114B5A545A1811
:100180005070881C605306F03DF903A9884202D1E3
:100190000D9806F043F903A8808D002809D10FB00F
:1001A000F0BD03A887850D9806F038F9052004F006
:1001B000ECFF04F0EAFFC0467C020020AA6F0000BA
:1001C000580900200202000000020020B790000041
:1001D000C0900000A590000094900000F0B583B09E
:1001E00019480027FF2539462A4604F0E5FF680034
:1001F000164E0290375201200190440237555D2778
:100200001348C15D305D9322D500725D002A06D08F
:10021000002904D020210843019949027054029911
:10022000715A05F0EFF97F2189007052705D002846
:1002300006D00748C05D002802D0002006F0AEF8C6
:10024000FFF720FFDBE7C046580900207C020020B2
:1002500000020020F0B581B0304C7C44204605F00F
:10026000BFFE808802F085FD204605F0B9FE80883B
:10027000C0B2264CFF2845D02948784405F0B0FE8E
:100280008088FF2108423DD0214804680546A088A7
:10029000204F7870000A3870E088F870000AB87053
:1002A000207A387109342046009108F0EFFE0246AA
:1002B0007A71B81D214604F06FFF2C682046093082
:1002C00008F0E4FE0546AE1D2734204608F0DEFEA9
:1002D000F1B27854EE1DF0B23D18204608F0D6FE7B
:1002E00002462846214604F057FF09480068273097
:1002F00008F0CCFE8019C0B200994900064A50525D
:1003000009200403204601B0F0BDC0468569000005
:1003100018070020580900207C02002022A30000BA
:1003200002A3000080B51148784405F059FE807999
:10033000FF2149000B4A082353520B4930224A70CF
:1003400001228A700623CB7005230B714A710023AA
:100350008B710323CB7110401B2242400A7009208D
:10036000000380BD7C0200205809002054A2000038
:1003700070B5194C7C44204605F032FE808802F0AE
:10038000F8FC204605F02CFE8088C0B20F4CFF28F8
:1003900019D01248784405F023FE8088FF252842B2
:1003A00011D06B2004020A4EB07800280BD10C4803
:1003B000784405F015FE80886900064A01235352EF
:1003C000307009200403204670BDC04685690000D6
:1003D000580900207C02002008A20000E8A10000CB
:1003E000CCA1000010B50720C0430A4909790029B3
:1003F00000D00846C4B267200002F82C09D805488E
:10040000214603F0BFFBFF20400003490C520920A6
:10041000000310BD580900207C020020F0B587B011
:10042000594E37795C4D7D44284605F0D9FD8088CA
:1004300002F09FFC284605F0D3FD8088C0B2534CE3
:10044000042800D997E00125294681401620014261
:1004500000D190E00697B1786B2007020020802938
:100460001DD0002900D089E0701D002629463246A3
:1004700002F0D8F83F21C900454A50507D20800045
:100480001654280215543D20C000165441481654F5
:100490007B20800016541675D6773B4E0420F178E9
:1004A000002933466AD10699091AFF273A46EE32E7
:1004B000374EB1541D461818401D1F2109017050B8
:1004C000012002F027FD09200103307D082854D1C6
:1004D0000697002030757D208000305CFB340028BA
:1004E00027462C464AD005912021684622463032C4
:1004F00003920260049141603546283501210027AE
:1005000028463A463B4603F025FB002839D12846C9
:1005100003F01AFB08210291204603F033FB6770B9
:1005200032202070221D039F3846049D29462B4609
:1005300003F016FB3F20C00031582046243002F063
:1005400022FA2046283031461531029A04F024FE62
:100550001248784405F044FD69460F604D6008304C
:1005600030232946224603F001FB0698400038213B
:100570003152059F02E0274600E00F46B8B207B0AF
:10058000F0BD04F002FEC046580900208569000055
:100590007C0200208604000056A100002AA0000072
:1005A000F0B59FB014460E4602AD69460D600121BC
:1005B00015AF1A463B4602F06DFA08354127002E6A
:1005C00003D1284601F00CFE21274122204629466E
:1005D00004F0E2FD38461FB0F0BD0000F0B59DB05C
:1005E000C44E7E44304605F0FBFC8579BC4CA078B7
:1005F0000D90304605F0F4FC2927C05D01263540FA
:100600000B95002500282A460AD0A07802282A4601
:1006100006D1B448817901220020072900D0024682
:100620000C92B548784405F0DBFCC05D0D9B012BB6
:1006300029460DD00C990029294609D100282946C0
:1006400006D0A84881790020072900D00646314607
:100650000A910127012B384600D128469321C90071
:10066000A14A515CA14EFE36E278002903D0002851
:1006700001D1354630E16B200502A078022800D96F
:100680002AE1022A11D3032A08D0022A00D023E14A
:1006900097480068406B002807D11DE19448006826
:1006A0004021405C022800D016E167200502207935
:1006B000002800D110E1012B099202D1601D04F045
:1006C000C5FB08900C98002809D060798000801D37
:1006D000C0B220180121002201F0A4FF1C90874D18
:1006E0007D44284605F07CFC808802F042FB2846C9
:1006F00005F076FC7D49CD1C8088C0B2042800D965
:10070000EAE00121079181401620014200D1E3E097
:1007100005F004FEAA28754D00D0DDE0651D2846D1
:10072000394602F051FA069041202070671C14AB44
:1007300028460B993A46FFF733FF099B0546012BE4
:1007400014D0032B10D1E9B20EAD38462A4602F080
:1007500022F90020694608602246433214213223E0
:10076000284603F059F943E0022B34D10EA8142196
:1007700004914170002105910170E9B2821C384654
:100780001F46039202F007F959480068022F17D15B
:10079000049F406B00282CD005F022FC01466846DF
:1007A00007602746433700223846039B05F0E0FCEC
:1007B0000546E8B201281CD1384608F067FC17E06E
:1007C000C0886946086005984860224643320EA8F2
:1007D000162196230AE046480068808800216A4670
:1007E00003C2E9B2224643329623384602F009F9A1
:1007F0000546422025540B98002801D10420607042
:10080000EFB2E5192846433014A9202204F0C4FCB5
:10081000FF20400039466331334B19520D980128AF
:1008200030D0069800282DD00C98002847D02425D9
:10083000585D002808D0194620311CA8042204F075
:10084000B7FC294B00283AD000265E5518462030C8
:100850001CA904221F4604F0A5FC1C9B2046C8309E
:100860000925274A7A44294605F0EAF9D02026547A
:1008700007984002395C10220A433A5404F012FBF4
:100880002D0329E00D95322F354625D82046C83056
:10089000433421463A461C4604F07EFCC820002121
:1008A0000D9A115407984002215C10220A432254E9
:1008B0000898C0B204F0D8FA092005030CE009201A
:1008C00005030A98002807D007984002195C1022F7
:1008D0000A431A5404F0F0FAA8B21DB0F0BDC046A5
:1008E00058090020AC0A00207C0200208269000028
:1008F000180700209A9F0000589F00009C9E00004F
:1009000092880000B0B5692300218522002808D014
:10091000FF2040000C49085A0C4941180B320020B6
:1009200001E010461A468BB2094CE254FF225200F5
:100930008B1C054DAB52491C89B2605499B22020E2
:1009400004F060FEB0BDC0467C020020FEFF000047
:1009500058090020B0B50848084D0121295408481D
:1009600000242C52074828180822214604F024FCB1
:1009700005482C54B0BDC0467C0400007C02002019
:100980006E0400007D04000085040000F0B593B003
:100990008F20C700BB4E0025F551BB4C305D0228AF
:1009A00022D0012800D06AE1C14FF551B748315A31
:1009B000002900D14BE1B848305C0122FD281FD24C
:1009C000F05102213155472109017050B2483018C9
:1009D0008118AE4C1546325B521B04F0DDFB305BD8
:1009E000401B3053012532E1A84C315B092900D26C
:1009F0002DE1A74BF05CFD22FC2812D809221FE054
:100A0000FE282ED0FD2800D039E1032900D21EE1B6
:100A1000A848315C9F208000305C0002084303221C
:100A2000CEE7904200D02AE10B2900D20FE199488D
:100A3000301800210A4601F0D1FD954B315B0B22A5
:100A40001018884200D902E109900020012592493E
:100A50003218525C401C002A0ED100240728F7D916
:100A600018E0052900D2F2E09248301800210A4629
:100A700001F0D8FD0522A3E7711811AC0822204629
:100A800001F0FEFF854830180146224602F07AF94F
:100A90007F4B2C460297F718384601F0ADFE0390C5
:100AA000384601F0BDFC08900797384601F0F0FC8D
:100AB00000907B48006840210191405C0021112892
:100AC00004910591069115D17B2081000691079F25
:100AD000384601F0B3FE05903846069901F0E6FE6F
:100AE00004903846069901F0E6FE06906C480068CE
:100AF0004021405C1D2801D0112809D1079801F040
:100B000041FC089908430028029F04D0099A12E08A
:100B1000099A029F0FE0049805990843002C099A4E
:100B200003D000282C4606D1A9E0039908430024ED
:100B3000002800D1A3E05A4800680199405C1128C0
:100B400018D01D2816D0012200200399002900D0BA
:100B5000024622430798144601F014FC0899084302
:100B6000012C099A02D1002800D188E04C48006885
:100B70004021405C0599049B0B43002B1AD0069939
:100B8000002917D0112815D100200A9010907B2041
:100B900084000AAA10AB0798214601F0C7FE315D18
:100BA0001098002901D1002869D0002901D000281F
:100BB00065D1099A03980028089C41D13948305CD6
:100BC00000283DD00099214304230320002900D0B0
:100BD00003460698204300280ED133483118D8B276
:100BE00030182B4A801814221F4604F0E1FA3B46C5
:100BF000029F099A002834D03D20C000002C1FD04D
:100C0000305C00281CD00AAC1422089262700020CC
:100C1000207025483118A01C1F4604F0BDFA16218B
:100C20002046224601F0B7FEF8B2301818494018A5
:100C30002146089A04F0BCFA00280BD0099A029FBA
:100C4000F25101204002315C10220A4332542846FE
:100C500013B0F0BD124800684421405C40070ED537
:100C6000099A1248315C002909D1012131544720E9
:100C700000013158491E3150002AE8D0A6E6012073
:100C800004F083FA7C0200207C0400006E04000063
:100C900082020000830200007A0200007D0400004E
:100CA00018070020760200006202000085040000A0
:100CB000740400007B02000070B59EB00C4601ADCC
:100CC00069460D600126002214AB314601F0E2FEB8
:100CD0000948784405F084F908358179412031428A
:100CE00003D1284601F07CFA212081B22846224611
:100CF00001F051FE1EB070BDAA980000F0B59BB087
:100D0000F94A94786B210E021179002C04D0FF2C43
:100D100002D0802C00D0CCE102910690F349F44F30
:100D20003D20C0000590385C0025002812D0785C7A
:100D300000280FD150790125FD21FD280AD34A1C36
:100D4000D5B205220023A84200D01A4603258842C6
:100D500000D0154607AE304608F06CF9B085E5497D
:100D6000084208D007A800218185119805F056FB9C
:100D70006F20060279E107A805F050FB1190387D3D
:100D8000DD4E092800D06DE10221C843801CC0B2AD
:100D900084423FD1787F002800D14EE14F20C4002B
:100DA000385D002800D15DE10025582206982946CB
:100DB00004F002FACC494879002800D13DE1069EB2
:100DC0002336491D2922304604F0E6F9D048391867
:100DD0003046FFF771FF3D55CB4801253D54344661
:100DE0003046C54E294601F09DFE002800D124E181
:100DF0009320C000385C002800D033E1C1480421B2
:100E000039546802395C10220A433A54204604F0EF
:100E10005DF812E10391F52040000490385C002851
:100E20001AD1E8B202990B1A3446FB36002B00DACD
:100E300018E100216A4611605160AB4A1018421D4A
:100E40003E462836304602F085FE002800D048E1B4
:100E5000304602F079FE2646787F00282FD0A74C36
:100E6000385B029D4119FB367D229200914200D9E8
:100E7000F8E03818A24940189B49491D2A4604F059
:100E80008BF9385B40193853FFF780FD002804D0F8
:100E900001204002385CC006F6D5472000013858D2
:100EA0000028954E0BD101204102795C102211429D
:100EB00005D1944B0324FC54114340023954059846
:100EC000385C894A9178002936D0002819D13446F7
:100ED00020206946486013A808603E469436521D9B
:100EE00001213046029B02F035FE002800D0F8E0D8
:100EF000304602F029FE0598385C00287A492646DB
:100F000073D00498385C002833D0202069464860AC
:100F100013A80860172000013A183D4694350121B6
:100F20006023284602F016FE002800D0D9E02846AB
:100F300002F00AFE6C4958E0002811D100216846F1
:100F4000016041603E469436521D3046029B02F0DD
:100F500001FE002800D0C4E0304602F0F5FD624AF0
:100F6000012062497854FF21490078520020107016
:100F700063E0202268461B2109017D1805601446A4
:100F800042603E4628360121002330462A4602F0C0
:100F9000E1FD002800D0A4E0304602F0D5FD304647
:100FA00002F0F6FD684605602346436001213046A5
:100FB0002A4602F0CFFD002800D092E0304602F031
:100FC000C3FD6846446013A901603D469435012184
:100FD000454A0023284602F0BDFD002800D080E0ED
:100FE000284602F0B1FD4049434E787F00282AD0C0
:100FF0004548385C0028069C04D100215822204630
:1010000004F0DAF841480068017961708079A070D5
:1010100020464C30082102F0B5FDFF204000039926
:1010200039520020304908704870787F002812D06B
:10103000E01C13A9202204F0AFF8119805F0EEF996
:101040000920060335E0FF204000039A3A520020B1
:1010500048700870069CE11C13A8202201F084FC53
:10106000002829D0119805F0D9F9FF20440000206C
:1010700038533875214D7A5B214839181A4804F0E5
:101080008BF8785B385305F0BDF907A9884202D187
:10109000119805F0C3F91B48012139541748002461
:1010A0003C521C4838180822214604F085F81A489A
:1010B0003C54B0B21BB0F0BD0498385C7B21890071
:1010C000795C014305983A5C0A20002A05D009069C
:1010D00003D10120049978540020387509200603B3
:1010E000D1E704F052F8C046580900207902000008
:1010F0007C020020FFFF0000856900006E040000F4
:101100007A0200007C04000076020000180700202C
:10111000620200007D0400008504000070B54120DB
:10112000C000134D2818FFF7E9FD044601204602D0
:10113000A85DC0061AD50F48295C042904D00329EC
:1011400005D103F051FE04E0012129540EE003F023
:101150001FFE00280AD1FF20400000212952A85D6F
:10116000EF220240AA552975D520C401204670BD42
:101170007C0200207C040000F0B581B009210D0341
:10118000002800954BD0472007014B4EF0594B4BA0
:10119000F15C022901D1401EF051002828462AD0D6
:1011A000474830188F21CC0032598118454D735B68
:1011B0009A1A03F0F1FF3059715B081A7053012439
:1011C0006502705DEF2101407155FFF7DFFB0028DC
:1011D00002D0705DC006F8D5705DC006009D28463F
:1011E000364B08D503F0D4FD002862D100203075BD
:1011F0003548FB30314BF15C022917D1F259002AF6
:1012000014D103201F46F05403F0EEFD0124002802
:101210004FD10022F2552C48FB3011461DE02648E4
:10122000002202752549415C27481CE0032915D19D
:1012300000217177F5214B00F15C7B229200B45CB8
:101240000C433D21C900755C03210A22002D04D006
:10125000240602D10122F25400223275FF225200EC
:10126000B25A1A4BD21893B2040A194DEC54FF2605
:101270007400931C104F3B53521C92B2A854009A16
:10128000904201D103290FD10C48012139540D4856
:1012900000243C520F4838180822214603F08CFFE6
:1012A0000D483C5470003B5A99B2202004F0AAF932
:1012B0000024204601B0F0BD7C0200207C04000028
:1012C0007A0200006E04000085690000FEFF000045
:1012D000580900207D04000085040000F0B585B0A9
:1012E000704D2F79784C7C44204604F079FE80883C
:1012F00001F03FFD204604F073FE6B4EF21C808827
:10130000C0B2042800D9C9E00497012739468140BA
:101310001620014200D1C1E0A878644A76328028C4
:1013200008D0002800D0B9E03902614B03245C5496
:1013300000211975EC788023052C55D8012C53D049
:1013400000286DD1581CC1B200208C4200D0074645
:10135000A01E02905648407F002803930CD11846E7
:101360002A30C0B20090019104F0D8FF0199009A90
:101370009042324600D091E07B2080004C4A1346D8
:101380001F54012000228C4201461F4600D0114606
:10139000029BDBB2042B034600D3134619433D23C3
:1013A000DB00F9547877FA83424909684023CB5C23
:1013B00041497A540326744002265E402643002E9B
:1013C00000D01046FF263246EA32B8541B2B12D802
:1013D00001209840394A10420DD0E878052808D0FD
:1013E000042808D1012005E0802C19D0812CA7D039
:1013F00054E002207854324800243C54F520400048
:101400003C54304838181822214603F0D5FE4F20AE
:10141000C00001213954EC36BC55EC78A878039B08
:10142000FF273946EC31224E3D22D2009C4229D082
:10143000B25C002A26D0725C002A23D1984221D1C6
:1014400028790A38C0B231281CD86879022819D8FE
:10145000012808D1A879382805D1E879322802D1A5
:10146000287A00280ED09320C000305C00280F4A54
:1014700014D1012070544002315C10220A433254CE
:1014800003F044FDEE370498F0551F200001691D5C
:101490003150022001F03EFD0920020390B205B058
:1014A000F0BDC04658090020826900008A6A000029
:1014B0007C020020180700208604000080018008BC
:1014C000870400006202000096920000F0B593B01D
:1014D000734C7C44204604F083FD808801F049FC75
:1014E000204604F07DFD8088C0B2644F04283DD8BA
:1014F0000124214681401620014237D0604EB07849
:10150000F17801436B200002002930D167200002EE
:10151000317907292BD305AD284607F08BFDA88527
:101520005849084208D005A8002181850F9804F089
:1015300075FF6F2007020EE005A804F06FFF0F9003
:101540005149087D0A2803D1FB3770790B2811D344
:101550000F9804F063FF4C480021017504F052FF1E
:1015600005A9884202D10F9804F058FF384680B28E
:1015700013B0F0BD45480818751D2922049029466E
:1015800003F00AFE707980002043295C2818451872
:10159000681C00222146039201F044F802906E7903
:1015A000394D3B482E543F48784404F019FD80796A
:1015B000042108420DD1374800684021415C0229CE
:1015C00002D0816B002952D0412EC1D1806B000224
:1015D00006433148285C002822D111AF38460299D1
:1015E00001F0D1F9381D314601F0CDF97B208000A2
:1015F000285C002804D011A8082100F097FE0FE015
:1016000068460399016041602F46283711AA0823D4
:10161000384602F09FFA00282DD1384602F094FA9D
:101620000021049E304601F0CFFA002804D00120AA
:10163000014600F039F807E06002295C10220A43F5
:101640002A54304603F052FC9320C000285C092144
:101650000F03002882D011488168491C81604268CC
:10166000914200DA7AE75D210122425476E7012EA9
:101670002646AED06CE703F088FDC04685690000C1
:1016800058090020FFFF00007C0200202B02000010
:101690005E020000180700208604000000020020FF
:1016A000AA900000D48F0000F0B5AFB00C4600281F
:1016B00017D00021684601603A483B4F381825ABE7
:1016C0000A4601F0E7F97B208000385C002810D042
:1016D0002020694648601DAA0A60412080003D180C
:1016E0000EE0FF204100304A00205052692285213F
:1016F00043E02020694648601DAA0A603D4628351F
:1017000001210023284602F025FA002848D1284666
:1017100002F01AFA02AE304602F03AFA2023684686
:1017200043601DAA026001253046294602F012FAE4
:10173000002835D102A802F007FA1E48784404F0C8
:101740004FFC8079400828406946FF2632465232D5
:101750000A60486025A81DA92022144D2B4601F0DF
:10176000D1FA71006A78D01C78521149795CAA18B4
:1017700091707A21CA430B320021002C0ED183B222
:101780000A4CE254FF225200831C074DAB52401C0E
:1017900080B2215499B2202003F034FF2FB0F0BD65
:1017A00003F0F3FC2B0200007C020020580900200B
:1017B0005E020000408E0000F0B581B06720060296
:1017C000284D287901282AD1284C7C44204604F051
:1017D00007FC808801F0CDFA204604F001FC8088E7
:1017E000C0B2214FFF2819D02148784404F0F8FBFB
:1017F0008088FF21084211D0FE1E04F08FFDAA2828
:101800000DD16C791B48784404F0EAFB09210903E7
:101810008088C0B2844205D10E4600E03E46B0B298
:1018200001B0F0BD3E46FB36082CF8D800910120EF
:10183000A0408B2149000842F1D00F4D7D4428463D
:1018400004F0CEFB408801F094FA284604F0C8FB6F
:10185000408820423E46E2D0204600F0C9FC009E6F
:10186000DDE7C0465809002085690000B28D000000
:10187000928D0000768D0000408D00006D200002EA
:1018800070470000F0B58BB009AD00210626284650
:10189000324603F091FC0A200A9901432971012480
:1018A0002846214601F05EFA02202843214601F035
:1018B00059FA124F7F44384604F092FB801C2946A7
:1018C000324604F0F7FC6D4620262846314602F0E9
:1018D00059F9384604F084FB08302946324604F0B2
:1018E000E9FC08AD2C70384604F07AFB401C294610
:1018F000224604F0DFFC0BB0F0BDC046C88C0000EF
:10190000F0B581B0017800250091002918D0441C61
:1019100000270125002620462946324600F082FE97
:1019200080B2094988420BD00849884207D0241D5B
:101930007F1CF8B2009988423546EAD300E00225C0
:10194000E8B201B0F0BDC0461DB100001EB10000FC
:10195000F0B59BB0CE4A9778802038436B210E02B9
:10196000802800D058E110790C90D578002F04D150
:10197000022D02D3802D00D04EE1D520C401264691
:10198000FE3EAA200B9004F0C9FCAA2800D043E137
:101990000FAE304607F04EFBB085BE49084208D076
:1019A0000FA800218185199804F038FD6F200402EA
:1019B00021E10FA804F032FD1990002F16D09721D5
:1019C0008900B54D695A13225201002900D110E156
:1019D000AA5A8A4200D00CE1B0482818FFF790FFBD
:1019E000002876D000F064F904460CE1012D2AD8D5
:1019F0004120C000A84F381800265822314603F075
:101A0000DBFBA34B58790B2800D3F1E0A448006816
:101A10000179A44AB9548079A34978549F48381869
:101A2000591D292203F0B8FB9948024650798100DC
:101A30000120084312185179002D5BD092790902D8
:101A40001143072257E097218E00934DA95B132283
:101A50005701EA5B0C9BD2188A4200D9C9E0049670
:101A600000246846046044602E4628368848421D9B
:101A70003046214603921D4602F06CF8002800D043
:101A800004E1304602F060F8684604604460824E2B
:101A9000943630462146039A2B4602F05BF8002824
:101AA00000D0F3E0304602F04FF87B4EF05B401977
:101AB000F053774B1C700499715A80B209221403B9
:101AC000814212D1FF204000022131520020587083
:101AD00099E001204002295C10220A432A541998F7
:101AE00004F09CFC0920060396E0FF204000012141
:101AF000315288E0062297239B000793F952801801
:101B0000002975D00690132040010A903E523D46B0
:101B10002835284602F03CF838469430089002F008
:101B200037F85F4F3868093007F0B0FA11300EAA65
:101B300010706846066046600123284631460993C6
:101B400002F008F8002800D0A0E0284601F0FCFFD1
:101B50003E680936304607F099FA03460027684682
:101B60000760476028463946324601F0F3FF0028F7
:101B700000D08BE0284601F0E7FF68460760476029
:101B80004A4A7A44112328460597394601F0E2FF74
:101B90000028079E7AD1284601F0D6FF3E4FB85B59
:101BA000FC2803D80DA90870012307E00DA948708F
:101BB0000B9A53320A70000A88700323684605990D
:101BC000016041600DAA284601F0C4FF00285DD1E4
:101BD000284601F0B9FF0C98FB38069A801A0EA926
:101BE00008700A99795AC3B25818B95B884216D955
:101BF000199804F013FC4120C0002749081800215F
:101C0000582203F0D9FA04F0FDFB0FA9884202D153
:101C1000199804F003FC2646B0B21BB0F0BD68462C
:101C2000059C046044601A488718284621463A46B5
:101C300001F090FF002829D1284601F085FF0EA869
:101C40000378684604604460089E304621463A4660
:101C500001F080FF002819D1304601F075FF0E4BCE
:101C60000A9A985A0EA9097840189852084A14708E
:101C70000799595A80B28142099901D154700221C1
:101C8000FF204000195209200403BCE703F07DFA4D
:101C900058090020FFFF00007C0200202B020000FA
:101CA00018070020090200000A0200001C7600004C
:101CB000F0B5A1B0FF2046003B4F0025BD5303AC5B
:101CC000204607F0B7F9A0853849084207D003A895
:101CD00085850D9804F0A2FB6F2004024CE002966B
:101CE00003A804F09BFB0D9020266846466019AAC5
:101CF00002603D462835012100242846234601F094
:101D000029FF00284ED1284601F01EFF284601F089
:101D10003FFF6846466019AA0260012728463946F7
:101D2000334601F017FF00283CD1284601F00CFF94
:101D3000684604601E481C4E30180FAD21462246EE
:101D40002B4600F0A7FE1C48784404F049F980793E
:101D5000400838403746694664220A60486019A93D
:101D60002022144C2846234600F0CCFF6078801CCB
:101D7000029978520920040304F044FB03A9884225
:101D800002D10D9804F04AFB4120C0003818002110
:101D9000582203F011FA03A8808D002802D12046B2
:101DA00021B0F0BD03F0F1F97C020020FFFF00003C
:101DB0002B020000580900203488000070B59320E1
:101DC000C000094D285C002801D0084C09E0012022
:101DD0004602FFF7BDFD0446A85DC00601D503F02D
:101DE00029F8204670BDC0467C02002082690000B0
:101DF000B0B5014669228520002902D0FFF758FFBF
:101E0000020AFF214900074B5C5A074D2A55A21CC4
:101E10005A52611C89B2685491B2202003F0F2FB3F
:101E2000B0BDC0467C020020580900206D20000291
:101E300070470000F0B589B01E4617460A460024D8
:101E4000E543782A00D987E0002A06D00024015D06
:101E5000002902D1641C9442F9D30490111B8A20FA
:101E600048436421069206F029FF03465A1C306855
:101E700098423FD901960295002138460092059379
:101E800003F09AF9059B03940698844226D21946DA
:101E9000039A04980792805C491E08911C46395D9C
:101EA00009020E183D463A273046394606F090FFA3
:101EB0004743F11B2F463955393608998C4201D8D2
:101EC000732E04D3611E002C0C46E8DC00E0214692
:101ED000079A521C06988242059BDAD10021039A88
:101EE000029D019E785C002806D1481C994201465B
:101EF000F8D302E032602FE0084600998918091AE9
:101F0000336831608B4227D3131A002B10DB481E35
:101F10000028059B19DB134878447C181E46BB5DDE
:101F2000C35C635533465B1E491E0029F5DC0CE09B
:101F30008A420AD20A49794414463B5CCB5C3B5541
:101F4000401C641C33689C42F7D3074878440178EE
:101F5000384603F031F90025284609B0F0BDC046E7
:101F60002E7200004C72000018720000F0B595B09F
:101F700000920F4602900AAC2A21204607F014F87E
:101F8000022004430594790001400D220A43039284
:101F90004140881D01901325002102980491405C66
:101FA0000690002107200991401A012108918140E3
:101FB000069801400791ECB2142C0ED81520021B94
:101FC00060000AA90E183188C81C042900D80846E8
:101FD0003080521EB61C002AF5D160000AA9085AAA
:101FE000FF34072800D82C46E0B2132817D8142154
:101FF0000D1A400005990A180AA90E5A13880121E2
:102000000027072B084600D8384676000E273740B1
:102010000743C8431752921C6D1E1E46EED1079807
:102020000028089A00D10246149840000E21014071
:1020300011430AA801850999491C08292546B1D1EF
:102040000499491C08292546A7D100210B460A46B8
:102050000C46009ED8B240000AAD285A240603D18F
:10206000002801D10C4604E0D4B230303055521C67
:1020700001245B1CD8B2039D8542EBD81106019D5B
:1020800002D130213170012200242146CEB2B54266
:102090000D4622D9361876000AAFBE5B6D1C002EA5
:1020A00004D1EEB2019FB742F4D816E02506009F96
:1020B00004D1D4B22E253D55521C0124DDB26D0051
:1020C0000AAE755B3035D6B2BD55521C5B1C491C3F
:1020D000CDB2019EAE423546D8D8D0B215B0F0BDD3
:1020E00080B581218900044A525804490968496C25
:1020F000FFF73CFF80BDC0467C020020180700208F
:10210000F0B583B02B4D00262B4A2846314603F00C
:1021100053F82846314600F025FE28482E529320D9
:10212000C0002E54264801242C5426482818082282
:10213000314603F041F824482E54FF20EC302E5451
:102140002248784403F04CFF4078012801D0FFF783
:1021500099FB1F48784403F043FF4078002807D0DC
:102160001C48784403F03CFF808800F002FE02E047
:10217000FF2000F03DF81848784403F031FF007864
:10218000002814D102AD2C7001AE3470134F7F447F
:10219000384603F025FF29303146224604F08AF8FC
:1021A000384603F01DFF2946224604F083F803B0A9
:1021B000F0BDC0467C0200209C0400006E040000BC
:1021C0007C0400007D040000850400003A840000C7
:1021D000288400001A84000004840000EE830000BC
:1021E0004021415C01220A400221114301707047E5
:1021F00010B582B0014601AC204600F0B3FD0548A1
:10220000784403F0EDFE001D0222214604F052F84E
:1022100002B010BD7C830000F0B58DB007464120B0
:102220008000414D2C18204601F0B2FC0026684683
:1022300006604660772080002A1804232046314635
:1022400001F088FC00286CD1204601F07DFC684636
:1022500006604660172000012A18202320463146D8
:1022600001F078FC00285CD1204601F06DFC684646
:1022700006604660192000012A18202320463146B6
:1022800001F068FC00284CD1204601F05DFC0C9662
:102290000B963D4608377D2081000CAA0BAB3846D3
:1022A000039100F0E3F9002838D00B980C99002630
:1022B0006A46166056600B18083320463146029570
:1022C0002A4601F047FC00282BD1204601F03CFCB7
:1022D00004AA3846039900F0F3FA00281DD0684696
:1022E0000660466004AA1A232046314601F032FCFB
:1022F000002816D1204601F027FC6846066046609B
:10230000082320463146029A01F024FC002808D117
:10231000204601F019FC012600E0002630460DB0F1
:10232000F0BD02F032FFC0467C02002070B582B0E2
:102330000C4606460021684601604160412080004D
:102340000F4A15181B20000112182023284601F0FF
:1023500001FC002812D1284601F0F6FB0021684656
:102360000160416028463246234601F0F3FB002815
:1023700004D1284601F0E8FB02B070BD02F005FF71
:102380007C02002070B504461E4E3068416B002967
:1023900011D01D4979440322204602F009FF01258E
:1023A00000282CD0194979440322204602F000FF6E
:1023B000002824D030684021405C14280CD11449F6
:1023C00079440422204602F0F3FE002816D1183486
:1023D0001049794428220BE00F4979440422204611
:1023E00002F0E6FE002809D118340C497944022293
:1023F000204602F0DDFE0125002800D000252846F9
:1024000070BDC046180700209B6D00008C6D000059
:10241000756D0000676D0000216D0000136D0000F8
:10242000B0B50446154800684021405C142810D11E
:10243000134979440322204602F0BAFE00281AD13B
:102440001734104979442722204602F0B1FE0125B5
:102450000FE00D4979440322204602F0A9FE00282E
:1024600009D1173409497944012520462A4602F04A
:102470009FFE002800D000252846B0BD1807002088
:10248000D36C0000C46C0000AD6C00009E6C0000BA
:10249000B0B504460C480068406B002810D00B49CA
:1024A00079440322204602F083FE0125002808D04B
:1024B000074979440322204602F07AFE002800D022
:1024C00000252846B0BDC046180700208F6C0000CC
:1024D000806C0000F0B586B0FF24147004680027FB
:1024E0008C421AD20B9E002B01D000241C60002EBF
:1024F00001D00024346005684C1B012C0DDB0592D3
:102500002A46551C056014784E2C5FD804954C2C37
:10251000039704D22746049D45E03C4659E0002736
:102520004E2C26D04D2C0DD04C2CF4D10294374695
:10253000049C0E1B0024012E3E464ADB951C0560C0
:1025400057782FE002940196049C0E1B0024022E63
:1025500015463EDB009300231C461F46049AD65CBA
:10256000E4B2A640F7195B1C0834022BF7D1ED1C2E
:1025700015E002940196049C0E1B0024042E1546BF
:1025800027DB0093002423462746049A165DDBB21E
:102590009E40F719641C0833042CF7D16D1D0560AB
:1025A000009B019E029C491B002915DB04952546D2
:1025B000B942039C0DD3002B01D004991960002E61
:1025C0002C4600D037600168C91901600598047075
:1025D0000124204606B0F0BD039CFAE7F0B581B0B7
:1025E00000920722D34308240029224600D01A462D
:1025F000002900D10C4600252946465D7F2737403B
:10260000002D334600D13B46009F002F00D01E46D0
:10261000E3B29E4071189C186D1C022DEDD1084646
:1026200001B0F0BDF0B581B000920722D34308227B
:10263000002900D01A461824002900D10C46002594
:102640002946465D7F273740002D334600D13B4663
:10265000009F002F00D01E46E3B29E4071189C18C8
:102660006D1C042DEDD1084601B0F0BDF0B5044657
:1026700000201060186000291FD02578FD26FC2D51
:1026800001D8012710E0032917D3B54215D1601CEA
:10269000002426462546075DF6B2B7407D19641C26
:1026A00008360327022CF6D115601F601068C31985
:1026B000012000228B4200D91046F0BDF0B585B054
:1026C000144602460020FD26002B029608D0002367
:1026D00000291BD01578B54205D201212B4616E002
:1026E0000B46014613E0032910D3B54219460ED11B
:1026F000561C00252F462B46715DFFB2B940CB1802
:102700006D1C08370321022DF6D100E01946029D09
:10271000AD1C04AE357055180395D2185518002B12
:1027200017D0002637466846066003A804AA294643
:102730003346FFF7CFFE00280AD004A80178781CA2
:10274000A14200D038460399A9420746EBD100E0E8
:10275000384605B0F0BDF0B585B002920027FD22E5
:10276000002B08D0002300291BD00478944205D206
:102770000121234616E00B46394613E0032910D306
:10278000944219460ED1441C00252E462B46615D0D
:10279000F6B2B140CB186D1C08360321022DF6D1DC
:1027A00000E01946921C04AC227042180392C01833
:1027B000451802980128019716DB002B019F13D0C2
:1027C0000B9C0A9E00276846046003A804AA2946B9
:1027D0003346FFF77FFE002806D07F1C0298874211
:1027E00002DA0398A842EED1012002998F4200D06C
:1027F000019805B0F0BD000070B501464A7801238C
:1028000000246A2A184600D020460B4D2D68402629
:10281000AD5D022D00D023461843022D0AD16A2A4D
:1028200008D00020002A05D18A78012000216A2AD8
:1028300000D0084670BDC0461807002080B5C122F0
:1028400000F002F880BD0000F0B581B015460E46DC
:102850000746FFF797FD0024002804D13846FFF70C
:10286000DFFD002802D0204601B0F0BD0E48006810
:102870004021405C7978022807D16A2905D00029D7
:1028800007D1B8786A28EED003E06A29EBD0022895
:10289000E9D00123384631462A46FFF70FFF0024CE
:1028A0000128E0D10446DEE71807002080B5C222E7
:1028B000FFF7CAFF80BD80B5C422FFF7C5FF80BD0A
:1028C000F0B585B0144600270497039703AA6B461A
:1028D0005A6004AA1A60022201263346FFF73BFF22
:1028E00001283D4600D1054604990029304600D113
:1028F000084605400398142800D03E463540002D78
:1029000011D076206070192020701422E270772098
:10291000C64330462130A070201D02F043FC8820C1
:10292000207624366676284605B0F0BDF0B583B033
:102930001D4616460024002E13D0002D11D06A46E5
:1029400016605560032201273B46FFF704FF00286D
:1029500007D03068002804D02868002800D1074636
:102960003C46204603B0F0BD70B50023002A08D0D5
:102970000023521E94B2055D0E5D6E403343002C61
:10298000F7D1D8B270BD01700A0A42700A0C827089
:10299000090EC1707047F0B5A3B0164603AC2025F0
:1029A00022462B4601F0DCF80BAF384601F0E4F884
:1029B000142069460E6048600121384622462B46A5
:1029C00001F0C8F8002804D10BA801F0BDF823B02D
:1029D000F0BD02F0DAFB70B588B014466D462026D3
:1029E0002A46334601F0BCF8284631462A4633468B
:1029F00001F0B6F804222046294602F0CDFB08B0CB
:102A000070BDF0B58BB01D4614460346109E0227DC
:102A10000120FF2E00D807461198002808D0142066
:102A20003843C2B202A8194602F0B6FBFFB20EE06C
:102A3000FFB202A8C2191846FFF7ADFF300A04D052
:102A400002A84670310A017001E002A80670142144
:102A5000394302AEF21914323046FFF7BCFF01953C
:102A60001821394301AB30462246FFF7E3F900282D
:102A700003DB01A800880BB0F0BD012002F085FB4C
:102A8000002A06D0491E8B5C0370521E401C002A8F
:102A9000F9D17047F0B58DB0174606780B2E3ED2AF
:102AA00001910293002E13D0401C00211822002512
:102AB0002B46445DD2B29440E3186D1C083A042DB5
:102AC000F7D18A0003ACA350491C001DB142EDD1DF
:102AD00002F05AFF68460760212703AD38462946B1
:102AE00032462B4603F000FC202238462946029C41
:102AF000234601F023F80198002807D012992120DD
:102B00000123224601F014F8002809D102F03CFF0D
:102B100003A80021202202F04FFB0DB0F0BD0220DF
:102B200002F033FBF0B58DB0024610780B2843D28B
:102B3000012600283DD002960191521C0024182540
:102B400000273E46D35DEDB2AB409E197F1C083D89
:102B5000042FF7D1A30003ADEE50641C121D844274
:102B6000EDD10528029E24D10126F207039B534094
:102B70002C2B03D0542B01D0312B1AD110490B68C8
:102B80001C88002C06D0049D5540A54202D05988CF
:102B90008D420ED16432059991420ADC0699019862
:102BA000814206D1074A079B01260021934200D8A3
:102BB0000E4630460DB0F0BD022002F0E6FAC046E7
:102BC0001807002050C30000F0B58DB002461F4822
:102BD00003681C880120002C33D01078022801D211
:102BE00008462EE0019102930B282CD2521C00259E
:102BF000182600273B46D15DF6B2B140CB187F1CAA
:102C0000083E042FF7D1A90003AE73506D1C121DAE
:102C10008542EDD10122D307039858402C28029910
:102C2000019D04D0542802D03128284609D1049DA2
:102C30005D40A542104604D04A88012000219542FB
:102C4000CED10DB0F0BD022002F09FFA180700208F
:102C5000F0B585B004920C4602780B2A4CD22021A4
:102C600021700121002A3DD00499891E0191461C42
:102C70000023012102920393182000221546B35C21
:102C8000C0B283405D19521C0838042AF7D1C9B27A
:102C90006018049A511A0122D2072B469343184A0E
:102CA0007A4402F0CDFF27462046049906F01AFA2E
:102CB000C1B2361D019A91421BDA002D039B01DB44
:102CC0003C4603E027223C466254401CC1B22F22FE
:102CD0006254411CC8B2002222545B1CD8B2029A32
:102CE0009042C8D3C8B2401E00212154C0B205B0E2
:102CF000F0BD072002F049FA022002F046FAC04671
:102D0000C1640000F0B587B01C4617460D46064664
:102D100002F03AFE0C98069005A86946C86006A81D
:102D200088604C600F600D98002801D00C4900E0CD
:102D30000A49032230462B4600F0F4FE00280AD14F
:102D400005990120014202D021780143217002F04F
:102D50001BFE07B0F0BD02F018FAC04601040000E7
:102D6000010600000A020A43FF21090251400180C6
:102D7000704780B5FF218143000A814201D003F0F2
:102D80008DFA80BDF0B5002307241E46155D0F5D4A
:102D9000F619751905550126FF2D00D81E46671E28
:102DA000002C3C46F2D101200021FF2D00D808461E
:102DB000F0BDF0B581B0002607240096155D0F5DCB
:102DC000330604D0AF4204D97F1E002303E0009BEA
:102DD00001E0FF373346BFB27E1B06550126AF42E6
:102DE00000D31E46631E002C1C46E7D1F0B201B092
:102DF000F0BD0000F0B583B0054601273802174C3E
:102E0000205C384213D01F20000122580021684660
:102E1000016041602646283630462B4600F09AFE77
:102E2000002819D1304600F08FFE3802205C800760
:102E300010D51F2000012258002168460160416022
:102E4000943420462B4600F085FE002804D120460D
:102E500000F07AFE03B0F0BD02F097F97C0200208A
:102E6000F0B581B0FF26EE36294DA85D002848D088
:102E70001F200701E8590478FC2C05D801252846B5
:102E8000FFF7B8FFFF2031E0FE2C19D0FD2C3BD11D
:102E90000120FFF7AFFFE859411CE951A95DFF315F
:102EA000A955C9B201292CD941780091847802250D
:102EB0002846FFF79FFF240200980443FE2015E0F8
:102EC0000120FFF797FFE859401CE851A95DFF3149
:102ED000A955C9B2032914D900210A46FFF7A2FB5C
:102EE000044604252846FFF785FFFC2008490A46CA
:102EF000D1594919D151915D40189055204601B0E2
:102F0000F0BD012002F041F9022002F03EF9C04676
:102F10007C020020F0B5B5B01290EA48784403F086
:102F20005FF8857929AC204606F084F8A085ED0885
:102F30000126354084B2002C01D000F0C2FC29A843
:102F400003F06CFA3390002D0F9600D10F95119578
:102F500013A8C01D0E901BA8011D0C9128300D90C8
:102F6000F64B1096A3E2072800D0A0E21C69002CC3
:102F700000D19AE2FF25EE35585D002800D065E1CA
:102F800000F08CFC4F783E46083EF1B2302901D962
:102F900000F092FCB91C0691C9B2884201D200F03F
:102FA0008BFCE748784403F01BF8E44C21460A9C6C
:102FB00009596A4657601BAB049313608A1C08309A
:102FC0002021334600F0D2FDDC480059C019811F92
:102FD00008220498FFF7C8FCD84C002801D000F064
:102FE0006BFC0A9FE0593D21C900625C002A0FD0AA
:102FF0003A22825C3223C254D0480346D859401D3D
:10300000D8515A5DF3325A55595C0122002940D1FA
:10301000811C1BAC2046324602F0BEF8C74920781E
:10302000322801D000F048FC0A9FCC590C98C851B6
:1030300024200E46FFF7DEFE06996018F051705D01
:10304000401A705513A808220D99FFF719FD0020AA
:10305000014602460E9E735CB84C6418257F5219D7
:10306000D31823770122FF2B00D80246491E0C46B5
:103070000834F0D10127FF2BB04B00D88DE000F0D1
:103080001BFC3D20C000185C0022002801D100F08C
:1030900013FC099201263046FFF7ACFEA74B0A9FAE
:1030A000D859421CDA51585DFF305855C0B2232818
:1030B00001D800F001FCF5204000185C002826D063
:1030C0003C463702DE552420FFF794FE9B4A002041
:1030D000D055115924311151505DDC305055C0B2DA
:1030E000072800D8E8E30F204001101808220392B7
:1030F00002F052F80398FFF77DFE904BDE55185909
:1031000008301851585DF8305855099F45E00021A6
:103110006846016041601720000118182423044606
:1031200000F018FD002800D0C9E3204600F00CFD97
:103130002420FFF75FFE81480246D1592431D15146
:10314000505DDC305055C0B2072800D8B4E313A856
:103150000822FFF795FC0020014602460E9B5B5CAF
:10316000764C67183C7F1219D3183B77FF2B3246F9
:1031700000D80246491E0C460834EFD1FF2B00D977
:103180009AE30820FFF736FE099F6C4B0A995858BE
:1031900008305850585DF83058553D20C000185C34
:1031A000002802D1012001025854109C0B9E1D469C
:1031B000FFF756FE28610221129A51403D22D200AB
:1031C000AB5C3B430B430022002B314600D0114641
:1031D000002800D106460E40664011980028574B43
:1031E00002D1002E00D167E302201875FF26354674
:1031F000EE35585D002800D150E31969012921D12D
:103200001F2004011859007801210022AE2800D1A6
:1032100011460F9A1143012907D101210022AE283E
:1032200000D1114610984140D9770120FFF7E2FD07
:10323000424B1859401C1851585DFF3058551969B8
:10324000491E1961002917D04C1EC0B2844200D318
:103250000446002C00D121E3E0B2FFF7CBFD374B51
:103260001F200001195809191950585D001B5855A5
:103270001869001B18611AE11299022928D13D2111
:10328000C900595C00291FD0F5214900595C00296B
:103290001ED000216846016041600F2040011A18CD
:1032A0001C4628341F460823204600F053FC002803
:1032B00000D004E3204600F047FCEE36B85D3B4604
:1032C00006E0C046607600000121090203225A543C
:1032D000C0B2032800D8EFE2F52040003D21C9002C
:1032E000595C002915D0185C002812D11F2000015C
:1032F0001A5800216846016041601C4628340423A6
:10330000204600F027FC002800D0D8E2204600F03C
:103310001BFC0420FFF76EFD084B1F20000119580D
:10332000091D1950585DFC305855012018759868D2
:10333000401E9860D868401CD860B8E07C0200202D
:10334000D8750000F5204400195D3D27F800185C91
:1033500000285ED000295CD12025684645601BAA64
:103360000260172000011E1801210023304600F0E2
:10337000F1FB002800D0A2E20894304600F0E4FB04
:10338000304600F005FC684645601BAA026001213A
:1033900030462B4600F0DEFB002800D08FE230469E
:1033A00000F0D2FB6846456013AA0260E84C28345E
:1033B00001210023204600F0CDFB002800D07EE252
:1033C000204600F0C1FB204600F0E2FB6846456065
:1033D00013AA0260012120462B4600F0BBFB002807
:1033E00000D06CE2204600F0AFFB1BA92024304641
:1033F000224601F0D1FE19200001D5490D462818BA
:1034000013A9224601F0C8FE2B460898195CF80063
:10341000185C00283FD000293DD0CE48185C002819
:1034200013D100216846016041601B2000011A1879
:103430001C4628342023204600F08CFB002800D0B6
:103440003DE2204600F080FBC14B0A2018752EE0BB
:1034500005282CD1FF24EE34185D002800D11DE290
:103460001D69002D15D0854200D30546002D00D1E1
:1034700014E2E8B2FFF7BEFCB54B1F20000119585B
:1034800049191950185D401B18551869401B1861DF
:103490000DE004204AE709211975002807D01846D5
:1034A000283000F075FBAA4B01E008201875197D43
:1034B00000E01975C8B2042807DC022877DD03286C
:1034C0002BD00428F3D1986839E0062800DDDFE12D
:1034D000BED1FF242546EE35585D002800D1DDE140
:1034E000032800D8E8E10420FFF784FC1F20000136
:1034F000F94B1958091D1950585DFC3058550821D1
:103500002042D6D00124250200205855FFF7A8FC00
:10351000F14B5C5518610721CBE71298022800D1C6
:1035200010E7FF20EE30185C002800D1B6E1FFF76D
:1035300097FCE94B00219860D96004211975062198
:103540000028B6D0FF24EE34185D002800D1A5E194
:10355000072800D8B0E11298012812D13F20C000FE
:103560001858D96881420CD11F20000119581846FB
:103570001530082201F010FE7D2080000121D64A7E
:1035800011540820FFF736FC1F200001D2490958CA
:103590000831D14A1150D048005DF830CE49085565
:1035A000FFF75EFCCC4B18610520187552E7002828
:1035B00007D0012803D0022800D117E677E79868E2
:1035C000FCE000269E60DE601E6118461530082271
:1035D000314601F0F1FDC04D2835284600F0D8FAFB
:1035E000BD4C9434204600F0D3FABB4B3D20C000C4
:1035F000185C002853D0012000021E54F520400022
:10360000185C002845D06846066046607720800038
:103610001A181F4604232846314600F09BFA00285A
:1036200000D04CE1284600F08FFA684606604660FC
:10363000172000013A18202328463146174600F08B
:1036400089FA002800D03AE1284600F07DFA684661
:1036500006604660192000019F490A182023284669
:10366000314600F077FA002800D028E1284600F023
:103670006BFA6846066046606023204631463A464B
:1036800000F068FA002800D019E1204600F05CFA4A
:1036900004E017200001181800F07AFA8E4BFF267C
:1036A0000596EE36985D032800D805E11F20050138
:1036B00059597720800007901F1804243846224665
:1036C00001F06AFD2046FFF795FB834A5059001D23
:1036D0005051905DFC3090558049515C002916D0C6
:1036E000C0B2032800D8E7E051599120C00010185B
:1036F0000424224601F050FD2046FFF77BFB764A6A
:103700005059001D5051905DFC30905524E0744894
:1037100000684021405C17281ED801218140714873
:10372000014219D0002138460A46FEF77BFF6A4A5B
:10373000002811DA002138460A46FEF773FF664A70
:103740006949884208DB0598EE30105CC8E7C0463E
:103750007C02002086040000614800684421415C2E
:10376000890716D5007A022805D0042811D10798B8
:10377000105C01280DD8905D0328144600D89BE00A
:103780000420FFF737FB6059001D6051A05DFC303D
:10379000A055FFF765FB504B98609321C900129A22
:1037A000022A09D1595C002906D0504A51680029E3
:1037B00000D15060002111600121197500281ED030
:1037C000FF25EE35585D002868D0012612990229A0
:1037D00018D0129901293746109C00D0E7E423281D
:1037E0006AD92420FFF706FB1F2000013A4B195825
:1037F00024311950585DDC3058550127D7E4032097
:10380000187554E6012857D91F2109010A91595802
:103810000A78022A0B9600D133E4012A01D1FFF77E
:10382000B1FB002A48D13D20C000185C002843D1DC
:103830002F4E7E44304602F0D3FB8088FFF799FA82
:10384000304602F0CDFB24498088C0B2042806D05F
:10385000022804D001282FD1119800282CD00A9ECC
:103860008859401C8851485D401E4855C0B22328E5
:103870000C4621D92420FFF7BDFAA0592430A051CD
:10388000605DDC3060550120A0770027234684E48A
:1038900001460839032901D3FFF765FB02F0B2FDA9
:1038A00029A9884202D1339802F0B8FD29A8808D59
:1038B000002804D135B0F0BD012001F066FC01F014
:1038C00064FC29A800258585339802F0A7FD0248ED
:1038D0000575204601F059FC7C020020860400009A
:1038E00018070020800180000300008000020020F3
:1038F0004A6D0000F0B581B000900B090122134021
:103900005B42194C1C40CD0815406D42174E2E40AD
:103910004701774067404C091440644214482040F6
:1039200078408E0916407642124F37404740C8090A
:1039300010404042104A02407A4098272F40009D94
:10394000ED0E49012943C9B2794079251D404D400A
:10395000F32121406940AE2333404B401E210140FA
:103960005940104601B0F0BDE2996DB7618EBCF2CE
:10397000C4B35F3EA8E2AB2E70E4434FF0B581B014
:1039800015460E4607463C78012000210090FFF7BF
:10399000B1FF002C12D07F1C1F22224042403C78F5
:1039A0001046FFF7A7FF7F1C002CF5D106E0FFF7BC
:1039B000A1FF0246307850406D1E761C002DF6D1D6
:1039C0000824FFF797FF641EFBD1009A504001B016
:1039D000F0BD000070B514460A4601460D48784413
:1039E000FFF7CCFF23220546D54020239E1A0B4625
:1039F000B3402B431646203E0D46F540002E00DA1C
:103A00001D461F232B402370531F641C002A1A4697
:103A1000E9D170BD2E580000F0B599B01D4603469F
:103A2000002017901690107014296FD11E99002055
:103A3000002904D0012969D10192082000E00192F7
:103A40000CAF3870781C1422194601F0A5FB152123
:103A50000026324630463B780002184313460833AE
:103A60007F1C491E0224E443A2420EDB0D321346A2
:103A70000A3B0446DC401F23234002ACA355521FDF
:103A8000761C092AF3DC521F00E01A460029E2D115
:103A9000002A019F07D00521891A88401F21014073
:103AA00002A88155761C02A816AA3146FFF792FF9C
:103AB0000020002E394611D002A801780023144AB4
:103AC0007A44202920D2581CAB421DD202ACE45CBF
:103AD000145DFC54B0420346F3D3391800220D4B59
:103AE0007B4416AC2478202C0ED28418641CAC4283
:103AF0000AD816ACA45C1C5D8C54521C082AF0D366
:103B000000238B54801801E00020387019B0F0BDFC
:103B1000585700003857000003B4014841E0000046
:103B20000C00000003B401483BE000001500000059
:103B300003B4014835E000001B00000003B4014855
:103B40002FE000001C00000003B4014829E0000041
:103B50002F00000003B4014823E000003200000001
:103B600003B401481DE000003300000003B4014825
:103B700017E000003D00000003B4014811E0000020
:103B80005600000003B401480BE00000580000009C
:103B900003B4014805E000005F00000003B40248E0
:103BA000FFE70249084700006F0000000100120013
:103BB00070B594B014460A46014601A8FCF73DFAD8
:103BC00001460020002912D001A8027800216B468E
:103BD0001960011D21250CAE2846334602F084FBF6
:103BE0002022284631462346FFF7A8FF012014B0C3
:103BF00070BD70B59EB0144614AAFFF7D9FF00251A
:103C0000002812D0212001A914AA01252B46FFF774
:103C10008FFF00280CD101AE08363046FEF7E0FADF
:103C200021222046314601F0BDFA28461EB070BD63
:103C300001F0ABFAF0B58BB00746119C012F17D0FD
:103C4000129E032F12D1212205AF084611463A4693
:103C5000FEF7A1FE0025684605601421384622467D
:103C60003346FFF7D9FE002836D136E0022F25D1A2
:103C70000393049405A81425457000240470861C41
:103C80002122084611463246FEF785FE022F0DD14D
:103C90001099002908D06846056000220498334630
:103CA00002F066FA002817D1002516E0684603994D
:103CB00012C005A816219623049D09E0254600247C
:103CC000684614C00648301883B2212208461146BF
:103CD0002A46FEF796FE2C54012528460BB0F0BD6F
:103CE000FFFF000070B59AB00E460446206900251B
:103CF00000282AD0217BA068401CFF31C9B211AA3C
:103D000000252B46FFF775FF00281ED0F388B288E8
:103D1000A0680078716B33256E46B56004AD22C68D
:103D200011A9FFF787FF002500280ED0246904ADF4
:103D3000284605F0ABF9421C2846214605F048F913
:103D400001250021002800D00D4628461AB070BD7C
:103D5000F0B585B00A4606460020B07334460E34EE
:103D6000317B082927D803AF002101910825384667
:103D700002922A4601F020FA327BA81A3818B1685C
:103D800001F010FA029D2735284605F07FF9C6B2EA
:103D900020462946324601F0FFF92020A055A019FF
:103DA000421C0298416C3846FEF7E0F830182018A3
:103DB00001994170012005B0F0BD000070B598B0C8
:103DC00004466D466021284605F0EEF8A1692846B4
:103DD0001C30402205F072F95C20295C002000298B
:103DE00017D1227B082A14D8267D082E11D86D46BB
:103DF000A81A1430A16805F0DCF8A81B1C30216952
:103E0000324605F0D6F804486022294605F0D1F87C
:103E1000012018B070BDC0460002002010B50C494A
:103E20000860FEF76DF99320C0000A4901240C5484
:103E300001F0DAFA2120C100074805F0B5F80020AA
:103E400003F094FF204603F091FFFCF7C7F910BD83
:103E5000180700207C0200201C07002080B50648BF
:103E60000078002801D104F091FE04497944002033
:103E7000024604F077F980BD1C0700202859000095
:103E800080B582B001900648784402F0A9F8293044
:103E900001A9012202F00EFAFFF7E0FF02B080BD97
:103EA000F466000001460020022903D88800024978
:103EB000794408587047C0464058000080B5012832
:103EC00005D0002807D10020FFF7DAFF80BD0120D0
:103ED000FFF7D6FF80BD002003497944034A7A44A6
:103EE00004F04EFE80BDC046130000002700000015
:103EF00001460020012903D8880002497944085866
:103F00007047C0460058000080B5002802D0FFF777
:103F1000A5FF80BD0648784402F062F82921435C81
:103F2000002004497944044A7A4404F009FE80BD23
:103F3000666600007DFFFFFF91FFFFFF80B5002058
:103F400003497944034A7A4404F01AFE80BDC0460E
:103F5000ABFFFFFFBFFFFFFF80B5FF2002F01EFA9F
:103F600080BD80B50120FDF743FFFFF777FF80BDDF
:103F700080B50020FDF73CFFFFF770FF80BD80B5E6
:103F80000120FDF7F9F8002800D080BDFFF766FF9B
:103F900080BD80B50020FDF7EFF8002800D080BD7F
:103FA000FFF75CFF80BD80B50120FDF7E5F8002834
:103FB00000D080BDFFF752FF80BD80B50020FDF727
:103FC000DBF8002800D080BDFFF748FF80BD80B53A
:103FD0000120FDF7D1F8002800D080BDFFF73EFF9B
:103FE00080BD80B50020FCF78DFCFFF737FF80BD5A
:103FF00080B50120FCF786FCFFF730FF80BD80B55F
:104000000020FCF77FFCFFF729FF80BD80B5012071
:10401000FCF778FCFFF722FF80BD80B50020FCF79D
:1040200071FCFFF71BFF80BD80B50120FCF76AFC27
:10403000FFF714FF80BD80B50020FCF763FCFFF79D
:104040000DFF80BD80B50020FCF75CFCFFF706FF8C
:1040500080BD80B50120FCF755FCFFF7FFFE80BD59
:1040600080B500200146FDF71FFBFFF7F7FE80BD7E
:1040700080B501200021FDF717FBFFF7EFFE80BDA3
:1040800080B50020FCF73EFCFFF7E8FE80BD80B560
:104090000120FCF737FCFFF7E1FE80BD80B5017819
:1040A000490601D001F014FA80BD0000B0B5054604
:1040B000072028400024012814D0022814D1002908
:1040C00009D00B4802F078F968B200280ADA02F049
:1040D000E5F8002406E0FF2152310548002202F0F5
:1040E00083F904462046B0BD022001F04EF8C046D8
:1040F00058090020F0B581B0E04D28780C2810DD7B
:104100000D286CD00E2800D1C7E015280FD1DC484F
:10411000807901280BD1A879000708D4052001F087
:1041200034F8052800D111E10C2800D181E2D54CEA
:104130000027676001202070204602F0FDF804206F
:1041400002F07AF96060692800D05DE101F064F95D
:1041500001F064F9C225F84E7753042002F06CF99F
:104160006060002800D164E2972800D161E2C42495
:104170003059002800D15CE2705BAA27C821715C2D
:1041800080B2884200D354E202F022F9002800D025
:104190004FE202F09BF8B84204D102F0BFF8B842F7
:1041A00000D046E23059715B49014018D021715866
:1041B000002902D0884700280AD0012803D13059AD
:1041C000715B490140180178490601D001F080F97E
:1041D000705B401C705331590029CFD129E2D54C76
:1041E0000027676001202070204602F0A5F8042017
:1041F00002F022F96060002800D11AE2972800D16D
:1042000017E2692800D099E101F006F901F006F9FA
:10421000C225C94E7753042002F00EF960600028D1
:1042200000D106E2972800D103E2C42430590028C7
:1042300000D1FEE1705BAA27C821715C80B2884280
:1042400000D3F6E102F0C4F8002800D0F1E102F05A
:104250003DF8B84204D102F061F8B84200D0E8E17C
:104260003059715B49014018D0217158002902D0A2
:10427000884700280AD0012803D13059715B4901D1
:1042800040180178490601D001F022F9705B401C0A
:10429000705331590029CFD1CBE1EA4D00276F602F
:1042A00001202870284602F047F8042002F0C4F8E4
:1042B00004466C60692C00D0E6E001F0ADF801F036
:1042C000ADF8C224E04E3753042002F0B5F8686020
:1042D000002800D1ADE1972800D1AAE1C42570598A
:1042E000002800D1A5E1305BAA27C821715C80B20B
:1042F000884200D39DE102F06BF8002800D098E1DD
:1043000001F0E4FFB84204D102F008F8B84200D04E
:104310008FE17059315B49014018D0217158002953
:1043200002D0884700280AD0012803D17059315B98
:10433000490140180178490601D001F0C9F8305B05
:10434000401C305371590029CFD172E1BD4C002778
:10435000676001202070204601F0EEFF042002F08B
:104360006BF86060002800D163E1972800D160E11C
:10437000692800D018E101F04FF801F04FF8C2258C
:10438000B14E7753042002F057F86060002800D146
:104390004FE1972800D14CE1C4243059002800D1C6
:1043A00047E1705BAA27C821715C80B2884200D3C4
:1043B0003FE102F00DF8002800D03AE101F086FF5D
:1043C000B84204D101F0AAFFB84200D031E130591F
:1043D000715B49014018D0217158002902D08847EB
:1043E00000280AD0012803D13059715B49014018D7
:1043F0000178490601D001F06BF8705B401C7053E6
:1044000031590029CFD114E1C4258F4C60590028BF
:1044100000D106E1C226A05BAA27C821615C80B258
:10442000884200D3FDE001F0D3FF002800D0F8E07F
:1044300001F04CFFB84204D101F070FFB84200D047
:10444000EFE06059A15B49014018D0216158002973
:1044500002D0884700280AD0012803D16059A15B07
:10446000490140180178490601D001F031F8A05BFC
:10447000401CA05361590029CFD1D2E0240800206C
:10448000AC0A002050090020DC206F4D295800297B
:1044900011D0642264290B4600D31346CA1A2A504D
:1044A000D821002A07D16958002904D0E022AA584F
:1044B0002A5000208847002C00D1BAE0972C00D168
:1044C000B7E0C424285900282FD0C226A85BAA2709
:1044D000C821695C80B2884227D201F079FF0028A8
:1044E00023D101F0F3FEB84203D101F017FFB84227
:1044F0001BD12859A95B49014018D02169580029CE
:1045000002D0884700280AD0012803D12859A95B86
:10451000490140180178490601D000F0D9FFA85B95
:10452000401CA85329590029D2D1C820285CC22197
:10453000695A7AE0500900201C070020C425424C2B
:10454000605900286DD0C226A05BAA27C821615CF3
:1045500080B2884265D201F03BFF002861D101F0B2
:10456000B5FEB84203D101F0D9FEB84259D1605925
:10457000A15B49014018D0216158002902D0884729
:1045800000280AD0012803D16059A15B49014018D5
:104590000178490601D000F09BFFA05B401CA053AE
:1045A00061590029D2D13CE0D420274C2058002862
:1045B00003D0E978490800F0CFFFC42560590028EE
:1045C0002FD0C226A05BAA27C821615C80B2884296
:1045D00027D201F0FDFE002823D101F077FEB8427A
:1045E00003D101F09BFEB8421BD16059A15B490188
:1045F0004018D0216158002902D0884700280AD0ED
:10460000012803D16059A15B49014018017849068E
:1046100001D000F05DFFA05B401CA0536159002950
:10462000D2D1C820205CC221615A814201D301F05D
:10463000CFFE01F0CDFE002801D100F0C7FD012022
:1046400001B0F0BD500900201C070020B0B582B0B9
:1046500019481A4D2A18294615316846FEF7A9FB54
:104660000024002825D1164914316846082204F098
:10467000AFFC00281DD100206877F5214A003D21BC
:10468000C9006B5C0A21002B05D0AB5C002B02D16A
:104690000121A9540021092212030A4BEA52FF22E8
:1046A00052000223AB522975074990220A704870C4
:1046B0000124204602B0B0BD7D0400007C02002031
:1046C000000200200202000058090020F0B583B06B
:1046D0002A4EB07F00280BD0294C204655302B495C
:1046E0007944072200F058FD5C20002121543FE06E
:1046F000244832183146153101A8FEF75AFB224FE3
:104700003D6800280DD04020285C082833D11C4C7F
:10471000204655301E497944062200F03DFD5B34A9
:1047200024E02735284604F0B1FC0246144C5534E9
:104730002046294600F030FD3D682735284604F024
:10474000A5FC20212154284604F0A0FC2018401C80
:1047500081218900705001A8FDF7C2FC0546386828
:10476000273004F093FC28182018441C00202070E7
:10477000012003B0F0BD0020FBE7C0467C02002012
:10478000000200207D04000018070020594F00009F
:104790002B4F0000F0B5A5B01E4617460C46054647
:1047A000FEF72AF8002807D0A94979440A2238469A
:1047B00004F0FFFB25B0F0BD0497A348006840213A
:1047C000405C0027112808D128462146FEF773F8DF
:1047D00007469D4800684021405C1D2801D01128F3
:1047E0001AD128462146FEF729F8002810D07B2050
:1047F0008000002F07D09549085C002803D0083DB1
:104800002846FDF709FD002F3BD0934979443AE053
:104810008D4800684021405C1D2801D011281AD124
:1048200028462146FEF742F8002814D07B2080005D
:10483000002F07D08549085C002803D02846083897
:10484000FDF7EAFC2E78FD2E34D16878A9780902AC
:104850000143C81C2FE02846FDF71AFE002816D099
:1048600079480068406B0028A4D001F0B9FB0146EC
:10487000A8786A461060EB1C0022049801F078FCCE
:1048800098E774497944049804F0F8FB92E76E4C79
:104890002068C7882846FDF775FD0321002802D04F
:1048A000206887880421380A45D005AA57701070FF
:1048B000022443E0701C2918153920AC142220462C
:1048C00004F077FB207800281CD0002020A9674A3C
:1048D0007A440B781C09145D05AD2C542C180F2557
:1048E0001D40535D6370491C801C2928F1D328208A
:1048F00005AB0021195441215D4A7A44049801F026
:104900009FF957E703200121FD2E00D00846295CBE
:104910004018295C4118002F4B4C3DD0685C0818AA
:10492000401C295C00293BD04C293AD129184978F0
:104930004018801C35E005A80770012405A800195F
:104940006918142503902A4600F026FCFF20EA305F
:104950003E49085C002810D03B480068C28801200E
:104960000021974200D00846694608601421039848
:10497000049A3346FFF750F81CE7012069460F60A0
:1049800048602C43A1B2B3B205A8049C2246FEF7AE
:1049900038F8002121540DE768184078891C09E097
:1049A000401C291849784018801C295C0818401CB4
:1049B000295C491C08182A5C411C4C2A00D001467D
:1049C0006F187878B97809020143F8783A791202B9
:1049D0000243100408431F901FA820497944042271
:1049E00004F05BFB00280DD01FA81E497944042267
:1049F00004F053FB002800D0DCE61B4979440B226D
:104A00000498D5E62468207919AD2870394611310B
:104A1000681C1526324604F0CCFAA08801216A46AB
:104A200003C205AC5023284631462246FDF7E9FF74
:104A3000002121544420385C694608604121084A1D
:104A40007A44049823465AE7180700207C02002085
:104A500092560000D54D00003C4E0000874C0000EF
:104A6000284C0000974C00004C540000B84D00004A
:104A70009F4D0000F0B597B001AD50242846214667
:104A800004F092FA4548464F391815A80822FDF758
:104A9000F7FF444838187B2189002A462346FFF750
:104AA00079FE414E40223046294604F007FBA12002
:104AB0008000385C142811D13C48381840497944AA
:104AC000042200F075FB002808D1394838183D4908
:104AD0007944042200F06CFB00282FD0354C374677
:104AE00026682736304604F0D1FA02463D46413565
:104AF0002846314600F050FB26682736304604F041
:104B0000C5FA2021295430463E4604F0BFFA281841
:104B1000401C81218900224A505015A8FDF7E0FA77
:104B200005462068273004F0B1FA2818401C3018D8
:104B3000412100224254012017B0F0BD1E48381810
:104B400001210022FDF76EFD0346304641301F2B48
:104B500006D0032B07D0012B0BD11B49794404E06D
:104B60001A49794401E01A497944062204F021FAED
:104B700004E01421174A7A4401F062F835464135C1
:104B8000284604F083FAC4B228198121890078509C
:104B90000A483818FDF7A4FA2018C8E77A0200007E
:104BA0007C0200208202000000020020850200003A
:104BB00089020000180700208D0200009102000009
:104BC000EC4B000083530000534B0000534B00009C
:104BD000534B00004B4B000010B58AB020206946B3
:104BE000486002A808600D4C94340D4A41320121FE
:104BF00000232046FEF7AEFF00280CD12046FEF72A
:104C0000A3FF07484121074A7A4402AB01F018F894
:104C100001200AB010BD00F0B8FAC0467C020020A6
:104C200000020020C84A0000F0B59BB007A8502140
:104C300004F0BAF94F4F39680020002959D100908B
:104C40004E4C0120029038604B482118264605AC96
:104C50000825204601912A46FDF712FF39460C31FE
:104C600020462A4604F0B4F9002841D144483018BF
:104C70007B21890007AD50232A46FFF78BFD39467B
:104C80001C31284604F0F0F90028344630D13D4864
:104C9000205C022808D14720000121584A1E2250DA
:104CA00002230121002A30D08F20C50063590198CA
:104CB000C118354A1646A25BD21A00F06DFA605947
:104CC000A15B081AA053029E7502605DEF210140AE
:104CD0006155FBF75BFE002804D001204002205CF8
:104CE000C006F6D5605DC00605D538680028A8D096
:104CF00000981BB0F0BD472000012158002000297A
:104D000000D006461F48235C3146022B19D10029EA
:104D100017D003201B4960541C4822182146153126
:104D200003A8FEF746F8002807D1143703A8082285
:104D3000394604F04DF9002801D00020D9E7114888
:104D4000235C0120032BD4D100206077F5204100A3
:104D50003D20C000225C0A20002A05D0625C002AA7
:104D600002D10120605400202075FBF7F3FD0120E3
:104D7000BFE7C046000200207A0200007C0200204B
:104D8000820200007C0400006E0400007D0400002C
:104D900010B59320C0000F4C205C002802D0FFF714
:104DA00043FF10BDFFF766FE4720000120580A4967
:104DB0006158491C0B1A094855301421084A7A4495
:104DC00000F03EFF074979440020024603F0CAF98B
:104DD000012010BD7C0200207404000000020020AD
:104DE00017490000424B000010B59320C0000E4C44
:104DF000205C002802D0FFF729FC10BDFFF766FCFD
:104E00000146002000290ED07B208000205C002875
:104E100002D00649794401E0054979440020024660
:104E200003F0A0F9012010BD7C020020EC4B000033
:104E3000D24B000080B5FFF7CFFE03497944002034
:104E4000024603F08FF980BD0C4A000010B50446FD
:104E500004497A22FDF7FCFE00212046FDF762FEA0
:104E600010BDC04600020020B0B504460A4DC8354A
:104E7000284604F00BF920212954291800204870F5
:104E8000002C02D00649794401E0044979440246E5
:104E900003F068F9B0BDC04658090020A84C0000D6
:104EA0008A4C000080B5034979440020024603F093
:104EB00059F980BD004D000080B5034979440020B8
:104EC000024603F04FF980BD5C4D000080B50549F6
:104ED0007A22FDF7BDFE044979440020024603F022
:104EE00041F980BD00020020E44D000080B5054975
:104EF0007A22FDF7ADFE044979440020024603F012
:104F000031F980BD00020020704E000080B50349D9
:104F100079440020024603F025F980BD144F0000BB
:104F200010B58CB06C46204604F084F8A0850D497D
:104F3000084206D1684601F071FA0A90FF2001F09C
:104F40002DFA01F05FFA6946884202D10A9801F011
:104F500065FA6846808D002801D10CB010BD00F0C4
:104F600014F9C046FFFF0000F0B59FB00446002CC6
:104F70002FD10DAC002648222046314600F01CF906
:104F8000032525720D9633480E902046093034498A
:104F900079440526324604F00CF820461730314F8C
:104FA0007F443946324604F004F82046273039461B
:104FB000324603F0FEFF26462D362B497944304613
:104FC0002A4603F0F6FF4020112121541A960420AE
:104FD0001E9021480460214C2120C100204603F08E
:104FE000E3FF01AD284604F025F8A88585B2002D21
:104FF0000BD001A8002181850B9801F00FFA0B98C6
:1050000001F00CFA052DE7D01FE001AD284601F0B4
:1050100005FA0B9000F0E8F9FDF772F8002002F0B5
:10502000A5FE012002F0A2FEFEF718FFFBF7D6F85E
:1050300001F0E8F9A84202D10B9801F0EFF901A8BC
:10504000808D0028C8D000F0A0F8FFF769FF1FB0DE
:10505000F0BDC0463A003200180700201C070020AF
:1050600050470000454700002E470000F0B59FB0B4
:105070000446A068002831D10DAD002748222846FB
:10508000394600F099F80320009028720D973748B0
:105090000E90284609303749794405273A4603F0EF
:1050A00088FF28461730344E7E4431463A4603F096
:1050B00080FF2846273031463A4603F07AFF2E46D5
:1050C0002D362E4979443046009A03F072FF402075
:1050D000112129541A9604201E90A5600027244E01
:1050E00001AD284603F0A6FFA885304207D101A8EC
:1050F00001F094F90B90F8070FD001F02BF901F0B3
:1051000081F901A9884202D10B9801F087F901A821
:10511000808D002827D10127E2E701F0B1F80D28A2
:1051200002D3FF2001F03AF96068022812D0042867
:105130000BD00328E1D1E06800218161A168E0681B
:10514000FEF7D0FDE1688861D7E7A168E068FEF767
:10515000FFFDD2E7E068FEF731FE0028CDD0A06861
:10516000FEF75CFEC9E700F010F8C0463A003200D6
:10517000FFFF0000484600003D46000026460000B4
:1051800080B5002001F04AF980BD10B5044601F059
:1051900039F9214603F05AFF10B5044603F00DFF1C
:1051A000204610BD10B5044603F007FF204610BD91
:1051B00080B503F00DFF80BD10B50446CBB211469B
:1051C0001A4603F0FEFE204610BD000080B50348DD
:1051D0007844052101F0F0F880BDC046884C0000FD
:1051E00010B51648C078032807DC01280DD0022826
:1051F0001FD1134802F041F910BD042816D0082829
:1052000017D10F4802F037F910BD0D4C012120468F
:1052100002F02CF9204602F00BF90A4881790029A6
:1052200008D10021C1600161416110BD044802F054
:1052300020F910BD0520FFF7A8FFC0462408002074
:105240006C0B0020AC0A00207F21014000200329C4
:1052500003D8C8B201490818007B7047AC0A002087
:1052600080B51448C2787F2111400279042A15D0F4
:10527000022A06D0012A1CD1811D104801F0E0FF4E
:1052800080BDC9B2032914D84A000B4B9A180023D9
:105290001382821D094802F058F880BDC9B2032963
:1052A00007D8054A521843791373821D034801F049
:1052B000F5FF80BD24080020AC0A00206C0B002004
:1052C00070B515460E460446FF2D1BD80E485021DA
:1052D0000170202101714571E91C817080222243F7
:1052E000C270090A4170062101F066F8304629466D
:1052F00001F062F87F2020404000044908187D2119
:105300000901018270BDC04624080020AC0A0020BB
:1053100080B50A46014682201423FFF7D1FF80BDE5
:1053200080B50A46014683201423FFF7C9FF80BDDC
:10533000B0B5294988784A781202024308780F28C4
:105340000ADC0E2821D00F2834D10020012A38D1C0
:10535000FFF746FF0120B0BD10282FD0162829D115
:105360001E4B1C780120002C2BD10A20187006201F
:105370009871FF202A30824200D302465A80C91C0D
:10538000184803F016FE0120B0BD1448816864314E
:1053900081601621124A435A002B08D06424642BE2
:1053A0001D4600D325465B1B435213420ED0891E77
:1053B0000E29F0D10220FEF79DFEB0BD0020032A89
:1053C00000D2B0BDFFF74CFF0120B0BD002101703D
:1053D0000520FFF7DAFEC04624080020AC0A0020B2
:1053E000FFFF00005809002080B500F049FF0D289C
:1053F00002D3FF2000F0D2FF0548182103F0D4FDAE
:1054000000F098FB034800210160416080BDC04668
:10541000AC0A0020C40A00207047000002480021A6
:10542000016041607047C046C40A0020F0B589B0F1
:105430000546084600F0D4FD0446002C43D0206900
:10544000002840D0284600F0CBFD014602AD1C22CA
:105450002846019203F0ADFD2168E98062682A8147
:10546000A0681A4F65233B7089B292B24A43424307
:10547000D1084E1C07231A4200D10E463146009136
:105480000426864070181D30B870000A7870032119
:10549000384600F091FF2846019900F08DFFA06882
:1054A00038700121384600F087FFE06800F098FD71
:1054B000B1B200F081FF009885B2206900F090FD44
:1054C000294600F079FF09B0F0BDC046240800204D
:1054D00070B500F085FD044620787F26064000F078
:1054E00077FF002830D1002E2ED0E06900281DD093
:1054F00000F076FD0546052E02D1A07E002824D0BE
:10550000284603F0C3FD0646124865210170314666
:105510001C318170090A4170032100F04DFF1C21EC
:10552000204600F049FFB1B228460BE009480021AF
:105530004170652101701C258570032100F03CFF3E
:105540002046294600F038FF70BD20462946FFF767
:105550006DFF70BD2408002070B50446002C28D0D3
:105560001448066845688E4201D16D1C45600E43A3
:10557000002902D00660324605E000220260426047
:105580000D4B5B1C1E438A4201D000214160082D57
:105590000CD30321284603F017FC01229007304367
:1055A000002900D03046D107884300E03046294624
:1055B000A04770BDC40A0020FFFFFF7FF0B581B097
:1055C0000F4E01243470B11CA72047007A1C2046DE
:1055D00000F0D8FE054675707A1B7719F91C022079
:1055E00000F0D0FEB8702D187619F47000F0BEFEF1
:1055F0003071902070710020B071E81D01B0F0BDD5
:1056000058090020F0B587B00722104207D00446A1
:10561000E0B289B2FEF74AFD80B207B0F0BD039256
:105620004B2295008023BB4FB94E044604931022B1
:1056300002400B04069400D1C4E0002A00D0C1E06F
:1056400001910292059007E0A9B20022304600F0D5
:10565000CBFE012000F070F900F0BAFE0028F3D173
:105660007D200001B9680C183878092848DC072823
:10567000019950D009286BD10021A748009101F071
:10568000EDFB13E0A9487844052100F095FEA9B28E
:105690000022304600F0A8FEB868A04200D32CE1FA
:1056A000FFF746FE00F094FE0028F0D19A4801F082
:1056B00009F90028E6D0019B98B2C11D4908A92923
:1056C00000D320E104991031944A11541018009924
:1056D0004170501D991C8BB2019311461A4603F07C
:1056E0006CFC05218D4803F05FFC0498C01CC1B21E
:1056F0000198401D83B28848884A01F0DDFB46E0EE
:105700000A2801990DD00B2825D189B28648784402
:1057100000F07CFA3BE089B28248784400F076FAE7
:1057200035E08CB22846253080B2844200D9EAE0C8
:1057300053203070B170080A70700321304600F0B9
:105740003BFE7648214600F037FE0020387021E00D
:10575000002800D1D4E00698C0B289B2FEF7A6FCBA
:10576000002814D0CCE072487844052100F024FED3
:10577000A9B20022304600F037FEB868A04200D33C
:10578000BBE0FFF7D5FD00F023FE0028F0D138780C
:105790000028E8D10020B871387078800699890611
:1057A00000D539E75E487844052100F005FE069CE7
:1057B00060B200280598029A04DA052000F0EEFD98
:1057C000029A0598002A05D1400600D591E00020F4
:1057D000B87138700020788056487844052100F070
:1057E000EBFDA9B200243046224600F0FDFD03285F
:1057F0002FD3B178727812020A43D11C814228D18A
:10580000FFF796FD788839780029E5D00028E3D0A5
:10581000424B19780591049A11463032D2B2059B59
:10582000934200D0F8E63D4B5A78A72A3ED0022A90
:1058300011D0012A00D0EFE69978DA780A43002ADD
:1058400000D0E9E6069C03980440FFF7B7FE014646
:105850003EE00020BDE79A780592DA78059B1A436E
:10586000002A00D0D8E608462A30C0B2059000F0E1
:1058700055FD059988422DD1012028490870881CC2
:10588000402100F03FFD25494870811C1F4A121D30
:1058900005921140049B1033204A53541346C11CF7
:1058A000059A11401A465454011D1AE09A7805923F
:1058B000DA78059B1A43002A0B4600D0ACE617485D
:1058C00001464C70184610300870069C1C4302219B
:1058D000039A09E0692011490870049A501D487024
:1058E0000221039A069C1440E0B2144200D19EE6C5
:1058F0008EE67888054940188EE60520FFF745FCBE
:105900000420FFF742FC0220FFF73FFCFBFF0000F2
:1059100024080020AC0A0020CC0A002058090020EE
:10592000B2460000F3FBFFFF0FFCFFFFD247000071
:10593000F04600007E46000070B5054611487844E8
:10594000052100F039FD4B2081000C4E002430462B
:10595000224600F049FD3078152806D80121814003
:105960000748014201D0002D05D1FFF7E1FC0124D9
:10597000002800D10446204670BDC04624080020FF
:10598000207020001A45000010B50C48784405210D
:1059900000F012FD084C4B2081000022204600F050
:1059A00023FD20780E2801D0FFF7C2FC00F010FD87
:1059B0000028F0D110BDC04624080020CC440000CF
:1059C000F0B581B015460F460090524A97420ED06E
:1059D000504C40262046314603F0E6FA402D2A4638
:1059E00000D332462046394603F0E7FA494A907818
:1059F00001280BDC002832D0012879D1D01C0421E9
:105A00001446FEF7BFF84021204634E0022830D08B
:105A100005286DD11079D178090201433E4C2068E8
:105A2000002688426AD12068002828D017463B49C2
:105A300068183B4A13686D1FADB2AB4200D21068C4
:105A40000D1D054081B23B203B2900D30546354E54
:105A50003068791D2A4603F0B0FA36683EE0002629
:105A6000967156711671D67040211046009A904773
:105A700044E028484021009A904700263EE0907973
:105A80005179090201432848016001684908A829A1
:105A900034D8016822480160517817461278120202
:105AA0000A4322490A601F49214E0E60691F8AB2CB
:105AB0001A495218D21C0368ED1FADB2AB4200D296
:105AC0000268CB1C1340081D10403925392B00D823
:105AD0000546F91D30462A4603F06BFA1048016866
